:020000040800F2
:1000000030460020ED0100088D3600083536000826
:1000100000000000000000000000000000000000E0
:10002000000000000000000000000000F9010008CE
:100030000000000000000000AB0100085939000872
:10004000FF010008FF01000889370008FF010008D0
:10005000FF010008310F0008410F0008510F000890
:10006000FF010008FF010008FF010008FF01000870
:10007000B90E0008FF0100080D400008FF0100084C
:10008000FF010008FF010008FF0100080000000058
:10009000FF010008FF010008FF010008FF01000840
:1000A000FF010008FF010008FF010008F53F0008FC
:1000B000FF01000875360008FF010008FF01000875
:1000C00000F002F800F030F80CA030C8083824180E
:1000D0002D18A246671EAB4654465D46AC4201D180
:1000E00000F022F87E460F3E0FCCB6460126334282
:1000F00000D0FB1AA246AB463343184730400100FC
:10010000504001000023002400250026103A01D3AE
:1001100078C1FBD8520700D330C100D50B607047BF
:100120001FB51FBD10B510BD00F077FE1146FFF7DB
:10013000F7FF10F0DBFC00F08FFE03B4FFF7F2FFD7
:1001400003BC00F095FE000070B505460C4616464F
:1001500002E00FCC0FC5103E102EFAD2082E02D3AB
:1001600003CC03C5083E042E07D301CC01C5361FBE
:1001700003E021782970641C6D1C761EF9D270BDD5
:10018000194B19680868203080F30988022080F331
:1001900014883FBCAE4662B600BD0000EFF310808D
:1001A00072B6704780F310887047EFF309800E4BEA
:1001B0001A6820381060F0C044464D4656465F46E7
:1001C000F0C008B572B612F0ADF962B60CBC116899
:1001D00008681030F0C8A046A946B246BB4680F376
:1001E00009882038F0C81847D00000200948804707
:1001F00009480047FEE7FEE7FEE7FEE7FEE7FEE709
:10020000016808467047000004480549054A064B46
:100210007047000069390008C10000083042002022
:10022000304600203044002030440020F8B5042A35
:100230002CD3830712D00B78491C0370401C521E2C
:1002400083070BD00B78491C0370401C521E830798
:1002500004D00B78491C0370401C521E8B079B0F67
:1002600005D0C91ADF002023DE1B08C90AE0FFF70A
:100270006BFFF8BD1D4608C9FD401C46B4402C4329
:1002800010C0121F042AF5D2F308C91A521EF0D466
:100290000B78491C0370401C521EEAD40B78491C91
:1002A0000370401C012AE4D409780170F8BDD2B271
:1002B00010B513029A1813049A1800F00EF810BD26
:1002C00001E004C0091F0429FBD28B0701D502807D
:1002D000801CC90700D00270704700290BD0C307EB
:1002E00002D00270401C491E022904D3830702D5A4
:1002F0000280801C891EE3E70022EEE70022DFE790
:100300000378C2781946437812061B021943837892
:10031000C0781B04194311430902090A0006084367
:100320007047002203098B422CD3030A8B4211D35E
:1003300000239C464EE003460B433CD40022430876
:100340008B4231D303098B421CD3030A8B4201D366
:1003500094463FE0C3098B4201D3CB01C01A5241FE
:1003600083098B4201D38B01C01A524143098B424E
:1003700001D34B01C01A524103098B4201D30B0137
:10038000C01A5241C3088B4201D3CB00C01A52415C
:1003900083088B4201D38B00C01A524143088B4221
:1003A00001D34B00C01A5241411A00D201465241BA
:1003B000104670475DE0CA0F00D04942031000D3D9
:1003C0004042534000229C4603098B422DD3030A2E
:1003D0008B4212D3FC22890112BA030A8B420CD33E
:1003E000890192118B4208D3890192118B4204D367
:1003F00089013AD0921100E08909C3098B4201D3E7
:10040000CB01C01A524183098B4201D38B01C01A20
:10041000524143098B4201D34B01C01A5241030997
:100420008B4201D30B01C01A5241C3088B4201D346
:10043000CB00C01A524183088B4201D38B00C01AF3
:100440005241D9D243088B4201D34B00C01A5241CA
:10045000411A00D20146634652415B10104601D357
:100460004042002B00D54942704763465B1000D3E1
:10047000404201B50020C046C04602BD70477047EB
:1004800070470000F0B5F94D0C091E092C402E40B4
:100490002F468BB0A7437DD0B543FCD0002E7AD039
:1004A000002CFCD00D465D40ED0F2543AC1BFF2515
:1004B000AD0464190894C502440DC9022143500DCE
:1004C000DC0204430120C00701430443D20201912E
:1004D000200C110C00958C46010423468B430A9195
:1004E00061460904E24D8A430991010A7D44491994
:1004F0008039097805464D4301266D18F605751BB0
:100500006943C90C640B891C4C436418B5012C1B4E
:10051000250C2E04B4434C434D43210C6918890922
:100520000591009DE90701D00121C90704912C46DE
:1005300001996708CD072F434C08059DE10B4D43FA
:100540002D0C29466646754302950D4645432E46B9
:10055000029D7D1BB44100950D465D4301942C0C1A
:100560002F040D465543AE462D0C3D430295039492
:100570007546049C2D04641B049406D2029C039DC2
:10058000641C002675410395029401AC70CC009F59
:100590007D1B01E03EE162E1B44109040095079151
:1005A00001940599A4086143090C0C464443650B6A
:1005B000E7040C4666467443A646640B3C43039529
:1005C00002947446049DE4042C1B049406D2029CFD
:1005D000039D641C002675410395029401AC70CC08
:1005E000009F7D1BB44101940C465C430095650F50
:1005F000E7000C465443A646640F3C43039502941F
:100600007446049DE4002C1B049406D2029C039DB6
:10061000641C002675410395029401AC70CC009FC8
:100620007D1BB441AE09AF06049DC900AD092F433F
:10063000049DA406AD060495079D344369180791EF
:10064000059DE10B4D432D0C2946664675430295E9
:100650000D4645432E46029D7D1BB44100950D4637
:100660005D4301942C0C2F040D465543AE462D0CD2
:100670003D43029503947546049C2D04641B049429
:1006800006D2029C039D641C0026754103950294CA
:1006900001AC70CC009F7D1BB44101948C05069485
:1006A000079C890A611800950791019C0599A40887
:1006B0006143090C0D464543680BEF040D46644643
:1006C00065436C0B3C43049FED047D1BAC4602D29A
:1006D0000025641C6841009E019D371B854108462A
:1006E000584301950C46460FC5005443600F2843FC
:1006F0006546E4002C1B02D20025401C6E41019D82
:100700003F1AB5412846BD09800628438446A00902
:10071000BF064E020699A40676180743079D0020DF
:1007200068410A99079019430020099B0090604690
:10073000FF1913434041E20F64003A43A4460446C4
:10074000D71A8C41A04203D90120009020463A4696
:10075000C70F941840416246D20F2243644664009A
:100760000494009CBE466400D71AA446044602972F
:100770008C417746002F01D1A04204D96046401C2D
:100780008446029A2046C40FA64694184041049A13
:100790000546D20F224364466400D31A8D41714648
:1007A000002901D1A84202D928461A46641C1043E8
:1007B0000122002800D0164361020020079B8919FE
:1007C00004465C410223002C02DB491813466441B5
:1007D000089DCE0A2D145D194B056705E10A2C050D
:1007E0000D1908993E43C9076940002B08D0934072
:1007F00006D30022761C5141002B01D176087600E9
:100800001C4A002D43DB154241D0AA433FD030465D
:100810000BB0F0BD06180D464D41174C7642AC4169
:100820001AD395181C465C41134A6D42A24113D35A
:10083000012252054C00D4420AD15C00D4420BD0B4
:100840004B4002D592021143E2E749004908DFE735
:100850005940C90FC90718E000200849D8E70548E2
:1008600001420DD10342F7D0F2E700000000FF077C
:10087000383B01000000F07F0000E0FF0000F87F3F
:10088000114859400143C01241400020C0E70123F4
:10089000089A9B069A4205DC032252078918C90F61
:1008A000C907B5E7052252078918074A1143D21232
:1008B0005140ADE770B515461C4602460B4628462A
:1008C0002146FFF7DFFD70BDFFFFFF7F0346CA0231
:1008D000400D10B510430A1504D00124E40720434D
:1008E000002A05DB0A4CA21A04D4D040FF2A00DDFE
:1008F000002010BD4A00002B01D0012000E00020A4
:10090000101801225205D042F2D8C817C04310BDBA
:100910001E04000010B50B1E01D0202301E0011EB3
:100920002BD00C0C01D10904103B0C0E01D1090293
:10093000083B0C0F01D109011B1F8C0F01D189004D
:100940009B1E002901DB49005B1E0446DC4021435D
:100950001C05A4182022D21A90404B05C20AC90ACD
:100960001A430919830501D14308184016239840FA
:1009700002D30020521C4141104610BDCA0FD207BD
:1009800003D00B46002140429941024B1A43C1E774
:10099000004ABFE70000D041F0B58B4C0F09254657
:1009A00089B0BD437BD01D092646AE43FAD00E4622
:1009B0005E402740F60F3E43254071D0240121427E
:1009C000FBD0FF24AD19A4042D1B039501252D0593
:1009D000DB02DB0AC9022B43C90A29431E010901B4
:1009E000040F130F050121431701880B8203914364
:1009F0002D098C46A90B1E438A039543B30B9A031A
:100A000096433F09BA0B9403A74302962E467E43B2
:100A10000497B6464E19D7190C46019654430597CC
:100A20007E43371B7646BF1B3601B646BE0B3619D2
:100A300000967646BC043719009C01D3641C0094D0
:100A40006400002F01D001263443029E049F7543A9
:100A500066467E430496760034196E00341900947D
:100A6000029C019E1C196643751BAE4606946546A2
:100A70004519059C05956C43594375460891691ABB
:100A80000191049E01465143A41B0491611A009CEC
:100A90000791E10605D061090122114302E072E0ED
:100AA0006EE06109089D00272C0A2D066918049D37
:100AB0007C412A0A2D066918019D6241AC0DAD02E8
:100AC0006D185441079A910D920255196141029A8D
:100AD000644658435443069B059A5A43121A131B03
:100AE0009A0E9B015B187A41010B0005C318514116
:100AF000220A200644195A419A4200D2491C012078
:100B00004002814203D315230226F64302E0142358
:100B10000326F6432020C51AA9401746AF40DA4005
:100B20000A4320460399D84009147318190551182F
:100B3000039A3843D2075140AC4009D00122944077
:100B400006D30022401C5141002C01D14008400036
:100B50001E4A934212D3012203989206904207DB69
:100B60000520400709181A480143C012414004E01B
:100B7000032040070818C10FC907002009B0F0BDC5
:100B80000020F107FAE705180C464C4111486D4268
:100B9000A04115D394181A465A410E486442904118
:100BA0000ED301204A004005824209D35A008242F6
:100BB00006D35940C90F084AC90700201143DDE791
:100BC00000200649DAE700000000FF07FE070000EA
:100BD000FFFFFF7F0000E0FF0000F07F0000F87FD4
:100BE000F0B5FF252D04C609C209FF2704462E4093
:100BF0000137CB093E4348402A402B400746002A94
:100C00006BD0002B69D0AA4267D0AB4265D00028D8
:100C100000DA32460125ED0529432C430902200262
:100C2000090AD21A4B0C7F24E31A434C000A7C4475
:100C3000E35C7D242404121914145B00A21888427A
:100C400001D3521C00E0400049420C465C43241191
:100C50005C43DB016415E318040A5C43C502200D04
:100C60000C4644436419250A5D432303EC0C0D46EE
:100C7000654300030019EB184C42A34201D35B18F3
:100C8000401CD4052018002B07D05B00C91804D3E2
:100C9000401C002901D1400840003F2189048A42BC
:100CA00009D3002A08DC1106090F04D003214907E3
:100CB0004018C00FC007F0BD01224100120689187C
:100CC0007F2252069142F6D205214907C84201D53A
:100CD0009010F0BDFF20C005F0BD002F00DA3246B5
:100CE0001648AA4207D2AB4205D21902090E17D004
:100CF000F80FC007F0BDFF2563002D06AB42F9D801
:100D00004900A942F6D8AB4201D1A942F2D0A9428A
:100D100001D1002101E061004908D0050843F0BD80
:100D20001102090EFBD0FF200243D005F0BD0A4698
:100D30000146104654E70000763401000000C07FF1
:100D400010B501469E240002CA15A307002A02D04E
:100D50001843002A04DBA21A002A0CDDD04010BD83
:100D60001206120E01D140004008A21A03D4D0404E
:100D700040420028F3DDFF2248001206904201D9CC
:100D8000002010BDC817C043584010BD0102C21555
:100D900004D00123DB071943002A0ADB9E239A1A99
:100DA00002D40846D0407047FF224100120691420B
:100DB00001D900207047C017C04370471F22030CA1
:100DC00002D10F2200041CD0030E01D10002083A08
:100DD000030F01D10001121F830F01D18000921E69
:100DE000002801DB4000521ED20551180212511892
:100DF0001922904004D3491C002801D14908490018
:100E000008467047C10FC90700D04042012292072F
:100E10001143D3E701218907D0E7754600F024F894
:100E2000AE46050069465346C008C000854618B066
:100E300020B5FFF7E9F960BC00274908B64600264F
:100E4000C0C5C0C5C0C5C0C5C0C5C0C5C0C5C0C57A
:100E5000403D49008D46704710B50446C046C04627
:100E60002046FFF76AF910BD00487047D0410020C6
:100E700001491820ABBEFEE726000200704730B5DE
:100E80008C180278401C13071B0F01D10378401CFB
:100E9000120906D10278401C03E00578401C0D7051
:100EA000491C5B1EF9D101E00B70491C521EFBD19D
:100EB000A142E6D3002030BD10B511F047F8044838
:100EC00000F09CFB034800F00EF911F04DF810BD46
:100ED000AC350020343B002070B505460E46144664
:100EE000294620460CF0FDFF0448046004480660D3
:100EF00003F0D6FE0CF0FFFF70BD00009001002053
:100F00009401002070B505460E4614462946204639
:100F10000CF0E7FF044804600448066003F0C0FEDC
:100F20000CF09BFF70BD0000900100209401002098
:100F300010B511F00BF80BF047FC11F015F810BDCF
:100F400010B511F003F80BF06FFC11F00DF810BDA7
:100F500010B510F0FBFF0BF0E3FF11F005F810BD2A
:100F600070B5044600F04AFD05460BE0601C002801
:100F700008D0002C04D000F041FD401BA04201D954
:100F8000032070BD24488069C007C00F012148407C
:100F900048400028EAD12048806902210840022800
:100FA00001D11D4988611C488069FF210131084039
:100FB000000A002829D11848806949000840400AE1
:100FC000002822D11448806949000840800A00287E
:100FD0001BD11148806949000840C00A002814D17B
:100FE0000D48806989000840400B00280DD10A484F
:100FF000806909010840400C002806D10648806934
:1010000049100840000C002803D006F0D9FF012049
:10101000B7E70020B5E7000000200240F8B504461D
:101020000F460025002600BF5420005D012801D195
:101030000220F8BD01215420015500BF20688068BE
:101040008007800F012806D120680068084000282A
:1010500001D0012000E0002000282FD1A06DFF2149
:101060000131884302210843A06520688068890710
:1010700008432168886000F0C1FC064611E000F0DA
:10108000BDFC801B0A280CD9A06D022188431021C9
:101090000843A06500BF00215420015500BF012076
:1010A000C7E720688068C00FC0070028E7D1A06D9F
:1010B0000221884301210843A06504E0A06D20219E
:1010C0000843A065012500BF00215420015500BF41
:1010D0002846AEE7704770470146886D7047014665
:1010E0000868006C704710B5044620680068042149
:1010F0000840042804D120684068084004280AD029
:101100002068006808210840082840D1206840680D
:10111000084008283BD1A06D10210840002803D1C9
:10112000A06D49010843A0652068C06803218902B9
:101130000840002825D1A06A002822D12068006834
:101140000821084008281CD1206880680421084034
:10115000800800280DD1206840680C218843216850
:101160004860A06DFF210131884301210843A0653B
:1011700007E0A06D20210843A065E06D0121084330
:10118000E0652046FFF7A6FF0C2021680860206874
:1011900000688021084080280ED1206840680840FF
:1011A000802809D1A06D49020843A065204600F0BF
:1011B0003FF98020216808602068006810210840FD
:1011C00010281AD1206840680840102815D1206CDA
:1011D000002805D02068C068C007C00F002809D0CB
:1011E000E06D02210843E065102021680860204678
:1011F000FFF771FF10202168086010BD10B504468C
:10120000002C01D1012010BDA06D002806D1E065A1
:10121000002154200155204600F00CF9A06D10214A
:101220000840002806D12068806804210840800812
:1012300000280AD0A06D10210843A06500BF00213E
:101240005420015500BF0120DDE7A06DFF210131D1
:10125000884302210843A065206880688007800FCA
:10126000012807D120680068C007C00F002801D0FE
:10127000012000E0002000283AD100BF03218907A7
:101280006069884207D049426069884203D04900BA
:10129000606988420CD1206800698000800821685C
:1012A000086120680069616908432168086112E0EB
:1012B00020680069800080082168086159488068BA
:1012C0000F2189048843574988600846806861690E
:1012D00008435449886000BF2068C06818218843CB
:1012E0002168C8602068C068A16908432168C86097
:1012F0004C4880680121490688434A49886008466D
:101300008068A16C49060843464988602068806867
:10131000012109070840002804D12068806808439B
:10132000216888602068C0683F4908402168C8601B
:10133000216A606A022901D1042100E000210843EA
:10134000A16A49030843A16B49000843216C084383
:10135000616C89030843E16CC90308432168C968CB
:1013600008432168C860FF21C231206B884207D042
:10137000616B206B08432168C96808432168C86015
:10138000E06A012812D1A06A002807D12068C0684D
:101390000121090408432168C86007E0A06D2021ED
:1013A0000843A065E06D01210843E06560680128FD
:1013B00016D1206800691D49084021680861A168AC
:1013C000E0680843216908432168096908432168E6
:1013D00008612068006901210843216808610BE069
:1013E00020680069C007C00F002805D02068006988
:1013F000400840002168086120684069C008C000BA
:101400002168486120684069E169084321684861B2
:101410000020E065A06D0221884301210843A065FA
:101420000020F0E6002701401902FEFF03FCFF7FC9
:101430007047000010B504460448406B0121490282
:101440000843024948630EF0EDFC10BD0010024055
:10145000F8B504460D46E06B082801D1082711E0D5
:101460002068C068C007C00F00280AD0A06D2021E6
:101470000843A06500BF00215420015500BF012092
:10148000F8BD0C2700F0BAFA064614E0681C0028E4
:1014900011D0002D04D000F0B1FA801BA8420AD967
:1014A000A06D04210843A06500BF00215420015510
:1014B00000BF0320E4E72068006838400028E5D03A
:1014C000A06D012149020843A0652068C06803217E
:1014D00089020840002825D1A06A002822D120686E
:1014E00000680821084008281CD120688068042171
:1014F0000840800800280DD1206840680C218843EE
:1015000021684860A06DFF21013188430121084313
:10151000A06507E0A06D20210843A065E06D0121D2
:101520000843E065606C002802D10C202168086047
:101530000020A5E770B504460025206880680421D6
:101540000840800800282BD100BF5420005D0128EE
:1015500001D1022070BD01215420015500BFE06C73
:10156000012803D0204602F05DFD0546002D18D16C
:10157000A06D0D490840FF2101310843A0650020FE
:10158000E06500BF00215420015500BF1C202168E8
:10159000086020688068042108432168886000E0B2
:1015A00002252846D6E70000FEF1FFFF70B504468D
:1015B000002500BF5420005D012801D1022070BD2C
:1015C00001215420015500BF204606F0C3FC05460A
:1015D000002D0CD1204603F051F80546002D06D110
:1015E000A06DFF210131884301210843A06500BFA0
:1015F00000215420015500BF2846E0E770B504469D
:1016000015492068884202D10120400501E00120EF
:10161000800505460120400585420BD10F484069F1
:1016200029460840002805D008460C494861204654
:1016300000F016F80120800585420BD1074840696B
:1016400029460840002805D008460449486120463C
:1016500000F006F870BD00001800014000040140D1
:10166000704731B5002400F0C9F9044600BF00F00E
:10167000C5F9001B00998842F9D338BD034840687A
:1016800002210843014948600020704700200240C1
:101690000D48406802210840002810D00A484068E0
:1016A000C007C00F002804D008480749C860084890
:1016B000C8600848044908610748086101E0012042
:1016C00070470020FCE7000000200240EFCDAB890E
:1016D00005040302BFAE9D8C16151413F0B50B461E
:1016E00000210022002479E001258D401D402A467A
:1016F000002A72D005684F000326BE40B54305603E
:10170000CD08AE0005462035AD594E07F70E0F2621
:10171000BE40B543CE08B60007462037BD518568A8
:101720004F000326BE40B5438560456801268E40C4
:10173000B5434560C5684F000326BE40B543C5604C
:10174000294D8E08B600AC598D072E0F0F25B540D8
:101750002C4005252D07A84201D1002519E0234D75
:10176000A84201D1012514E0214DA84201D1022552
:101770000FE0204DA84201D103250AE01E4DA842EA
:1017800001D1042505E01D4DA84201D1052500E049
:1017900006258E07360FB540A5421ED18D072E0FA8
:1017A0000F25B5402C46104D8E08B600AD59A54307
:1017B0000D4E8F08BF00F551114D2D689543104E09
:1017C000356035466D68954375603546AD6895431F
:1017D000B5603546ED689543F560491C1D46CD4022
:1017E000002D81D1F0BD0000080001400004005030
:1017F00000080050000C005000100050001C005069
:101800000004014070B50346002200240020DFE000
:10181000012696400D6835402C46002C77D04D6847
:10182000022D02D04D68122D15D1D508AE001D46EF
:101830002035A8595507EE0E0F25B5400646AE4394
:1018400030465607F60E0D69B5402843D508AD0061
:101850001E46203670514D68012D08D04D68022D6E
:1018600005D04D68112D02D04D68122D18D1986801
:1018700056000325B5400646AE4330465600CD68B7
:10188000B540284398605868012595400646AE4308
:10189000304610264D6835402D0995402843586044
:1018A000186856000325B5400646AE4330460D790C
:1018B000AD07AD0F5600B54028431860D8685600F4
:1018C0000325B5400646AE43304656008D68B54008
:1018D0002843D860012636074D683540B54276D199
:1018E0003E4D6D6B012635433C4E75633C4D96086D
:1018F000B600A85995072E0F0F25B5400646AE43F2
:10190000304605252D07AB4202D100251AE05EE0E6
:10191000344DAB4201D1012514E0334DAB4201D12E
:1019200002250FE0314DAB4201D103250AE0304DD5
:10193000AB4201D1042505E02E4DAB4201D1052576
:1019400000E006259607360FB5402843244D96083B
:10195000B600A851284D28680546A543284601260B
:1019600036044D683540B54202D105462543284628
:10197000214D286068680546A5432846012676045F
:101980004D683540B54202D10546254328461A4DDB
:101990006860A8680546A5432846012636054D68B7
:1019A0003540B54202D1054625432846124DA86070
:1019B000E8680546A5432846012676054D6835406A
:1019C000B54202D10546254328460B4DE860521C1E
:1019D0000D68D540002D00D01AE770BD0010024000
:1019E000080001400004005000080050000C0050A6
:1019F00000100050001C0050000401400148006825
:101A0000704700003401002002480068401C014972
:101A1000086070473401002070B5044600F092FB66
:101A200005467D21C900FEF77CFC401E0549486142
:101A30000720086100222146501E00F0F5F8002022
:101A400070BD000000E000E070B5044600260025EF
:101A5000002C01D1012070BD3520005D002807D188
:101A600000BF00213420015500BF204600F07EF861
:101A70000221352001552068006840084000216897
:101A80000860002506E0002120681430AA0081507B
:101A9000681CC5B20F2DF6D9206880680421084360
:101AA00021688860A16860680843A16A0843E16A08
:101AB0000843E1690843216A0843A1690843616A50
:101AC000084321684968284A114008432168486052
:101AD000204601F0B3FD2169E068084361690843CD
:101AE000216B084321680968FE229143084321685D
:101AF0000860206800680121084321680860FFF73A
:101B00007DFF06460AE0FFF779FF801B7D21C900B3
:101B1000884203D90820A06303209CE720688068DE
:101B2000C007C00F0121484048400028EBD0FFF714
:101B300065FF06460AE0FFF761FF801B7D21C900B3
:101B4000884203D91020A063032084E720688068BE
:101B50001021084000090028EDD00020A0630121D9
:101B600035200155002076E70F0000FC10B5044633
:101B70000EF0ECF90548806B012149020843034946
:101B8000886301200249088010BD00000010024057
:101B90005E01002070B50446002508202168C86059
:101BA000206880680421084321688860FFF726FFC9
:101BB00005460FE0FFF722FF401B7D21C900884248
:101BC00008D90420A06300BF00213420015500BFC4
:101BD000032070BD2068806808210840C0080028E4
:101BE000E8D001213520015500BF002134200155E6
:101BF00000BF0020EDE7000000BFC206D20E0121A9
:101C00009140024A116000BF7047000080E100E08F
:101C100000BFC206D20E01219140024A116000BFEE
:101C20007047000000E100E070B504460D4616461E
:101C30002946204604F0F2FE70BD0000034800680B
:101C40000121890208430149086070470070004083
:101C500003480068012149020843014908607047B0
:101C60000070004003480068FF210131084301492A
:101C7000086070470070004010B5024600200B4B12
:101C8000186880088000034613431846074B186005
:101C9000074B1B690424A343054C2361012901D18F
:101CA00030BF02E040BF20BF20BF10BD0070004029
:101CB00000ED00E010B5024600200E4B18688008C9
:101CC00080000346134318460A4B18600A4B1B69F1
:101CD00004242343084C2361012901D130BF02E0D1
:101CE00040BF20BF20BF044B1B690424A343024C08
:101CF000236110BD0070004000ED00E070B50446A7
:101D000000250026202120680840202804D08901D1
:101D100020680840884277D191480068032109056E
:101D2000084003221205A1691140884207D18C485E
:101D3000006811460840E169114088420ED0032135
:101D40000904A0690840884208D18548006801213B
:101D500049040840002801D0012070BD8048806BF4
:101D60000121090708437E4988637E480068891578
:101D700008437C490860FFF741FE054606E0FFF78F
:101D80003DFE401B642801D90320E6E77548006842
:101D9000FF21013108400028F1D07148403000692E
:101DA00003210904084003221204A169114088425A
:101DB00008D16B484030006911460840E169114084
:101DC00088425CD06648403000690321090488439A
:101DD00006466348403000690121C9040843604950
:101DE00040310861084600690121C90488435C4903
:101DF000403108610846066140153040002815D082
:101E0000FFF7FCFD054608E039E0FFF7F7FD401B52
:101E10005549884201D903209FE751484030006965
:101E2000012149020840400A0028EED000BF0321EA
:101E30000904A069084088420BD14948006809019B
:101E4000884303221205A1691140084344490860F0
:101E500006E04348006803210905884340490860BB
:101E60003F484030006903210904884303221204DB
:101E7000A169114008433A494031086100BF207808
:101E8000C007C00F002809D035484030C06880081E
:101E900080006168084332494031C86002212068EF
:101EA0000840022809D12E484030C0680C218843E0
:101EB000A16808432A494031C860042120680840CD
:101EC00004280AD126484030C0680321890288438B
:101ED000E168084322494031C86008212068084071
:101EE00008280AD11E484030C068032109038843EE
:101EF000216908431A494031C860FF210131206837
:101F0000084088420AD116484030C06803210904BD
:101F100088436169084312494031C8604021206804
:101F20000840402809D10E484030C0680905884360
:101F3000216A08430A494031C8608021206808406E
:101F400080280AD106484030C068032189048843AC
:101F5000616A084302494031C8600020FDE6000084
:101F600000100240007000408813000070B5044665
:101F70000D46002670480068C007C00FA8420ED268
:101F80006D4800684008400028436B4908600846D7
:101F90000068C007C00FA84201D0012070BD022117
:101FA00020680840022807D16448C068F0218843AF
:101FB000A16808436149C8602078C007C00F0028A5
:101FC0004CD06068022809D15C48006801214904AE
:101FD0000840400C002824D10120DFE76068002879
:101FE00009D156480068012149020840400A0028EA
:101FF00017D10120D2E76068032809D14F48006853
:10200000012149060840400E00280AD10120C5E7F9
:102010004A480068042108408008002801D10120B6
:10202000BCE74648C06880088000616808434349AF
:10203000C860FFF7E3FC0646606802280FD107E09E
:10204000FFF7DCFC801B3E49884201D90320A5E74D
:102050003A48C0680C2108400828F1D134E0606893
:1020600003280FD107E0FFF7C9FC801B34498842E1
:1020700001D9032092E73148C0680C2108400C28A0
:10208000F1D121E0606800280FD107E0FFF7B6FC2E
:10209000801B2B49884201D903207FE72748C0686D
:1020A0000C2108400028F1D10EE007E0FFF7A6FC64
:1020B000801B2349884201D903206FE71F48C0686D
:1020C0000C2108400428F1D11B480068C007C00F4C
:1020D000A8420ED31848006840084000284316491B
:1020E000086008460068C007C00FA84201D0012060
:1020F00054E7042120680840042808D10F48C0682C
:10210000072109028843E16808430C49C860082197
:1021100020680840082809D10848C0680721C9027A
:1021200088432169C90008430449C8600020FFF7BB
:1021300073FC002032E70000002002400010024043
:102140008813000010B500F037F80649C968F0227E
:1021500011400909044A515CC84004490860084616
:10216000006810BD001002408D38010830010020C9
:1021700010B5FFF7E7FF0549C968072212021140B1
:10218000090A034A515CC84010BD0000001002401B
:102190008D38010810B5FFF7D5FF0549C96807223A
:1021A000D2021140C90A034A515CC84010BD000068
:1021B000001002408D380108F8B5002400260020E8
:1021C0000090002700253248406807214903084055
:1021D000470B2F48C0680C210840002806D004286F
:1021E00009D0082811D00C2849D110E0781C012111
:1021F0008140CD0348E026480068102108400028AF
:1022000001D0244D00E0244D3EE0244D3CE0204828
:10221000C0680F218904084004461D48C068032196
:10222000890508400646A00C1D490C5CB00D461CF3
:102230001748C06801210904084000900098002850
:1022400015D11348006810210840002807D0114913
:10225000614308463146FEF764F805460EE00E4934
:10226000614308463146FEF75CF8054606E00B4937
:10227000614308463146FEF754F8054604E0781CF1
:1022800001218140CD0300BF00BF2846F8BD0000FA
:102290000010024000093D000024F40000127A0002
:1022A00084380108F8B5044600252078C007C00F1F
:1022B00000286FD0F948C0680C21084008280BD0CE
:1022C000F648C06808400C2813D1F448C0680121C2
:1022D0000904084088420CD1F048006801214904F3
:1022E0000840400C002869D06068002866D10120B1
:1022F000F8BD00BF012109046068884205D1E748A4
:1023000000680843E54908602DE00521090460687C
:10231000884215D1E1480068012109048843DF495A
:10232000086008460068012189040843DB49086009
:1023300008460068012109040843D849086012E0F2
:10234000D6480068012109048843D449086008463A
:1023500000680121090408400090D0480068890005
:102360008843CE49086000BF6068002813D0FFF79B
:1023700045FB054606E0FFF741FB401B642801D9F9
:102380000320B5E7C5480068012149040840400C16
:102390000028F0D012E0FFF731FB054606E0FFF71A
:1023A0002DFB401B642801D90320A1E7BB4800682E
:1023B000012149040840400C0028F0D10221206886
:1023C000084002286AD1B548C0680C21084004289A
:1023D0000BD0B248C06808400C281DD1AF48C06877
:1023E000012109040840002816D1AC4800680421E6
:1023F00008408008002804D0E068012801D00120AE
:1024000076E7A64840681F2109028843216909022E
:102410000843A249486041E0E068002824D09F4872
:10242000006809218843E16808439C490860FFF778
:10243000E5FA054606E0FFF7E1FA401B022801D95C
:10244000032055E7954800680421084080080028CB
:10245000F1D0924840681F2109028843216909028E
:1024600008438E49486019E08C4800680921884378
:10247000E168084389490860FFF7C0FA054606E0AD
:10248000FFF7BCFA401B022801D9032030E783483C
:1024900000680421084080080028F1D1102120683C
:1024A0000840102872D17D48C0680C2108400028DF
:1024B00022D17A480068012149020840400A0028D8
:1024C00004D0E069002801D1012011E77348406879
:1024D000072149038843616A0843704948600846F8
:1024E00040680002000A218C090608436B494860D5
:1024F0000020FFF791FA49E0E06900282CD06748F6
:102500000068FF210131084364490860FFF776FA4B
:10251000054606E0FFF772FA401B022801D90320A6
:10252000E6E65E480068012149020840400A0028AA
:10253000F0D05A484068072149038843616A08433C
:1025400056494860084640680002000A218C090686
:1025500008435249486019E050480068FF210131A2
:1025600088434E490860FFF749FA054606E0FFF741
:1025700045FA401B022801D90320B9E64748006804
:10258000012149020840400A0028F0D108212068B2
:102590000840082839D1606900281BD03F484030E6
:1025A0000069012108433D4940310861FFF726FADF
:1025B000054606E0FFF722FA401B022801D9032056
:1025C00096E636484030006902210840400800285D
:1025D000F0D01AE0314840300069400840002F49EF
:1025E00040310861FFF70AFA054606E0FFF706FAF0
:1025F000401B022801D903207AE6284840300069B0
:102600000221084040080028F0D12021206808401D
:10261000202850D1A069002826D000BF1F4880681C
:10262000012108431D4988600846406B0121084389
:102630001A4948631A48006A49140843184908624D
:1026400000BFFFF7DBF9054606E0FFF7D7F9401BAF
:10265000022801D903204BE6104880680221084077
:1026600040080028F1D026E000BF0C4880684008F0
:1026700040000A4988600A48006A0A490840084937
:10268000086200BFFFF7BAF905460DE0FFF7B6F99B
:10269000401B022808D903202AE60000001002404F
:1026A00000000140FEDFFFFF9B48806802210840D8
:1026B00040080028EAD104212068084004287DD180
:1026C000002600279448806B89060840002805D121
:1026D0009148806B08439049886301268F480068C1
:1026E000FF2101310840002817D18C4800680843B9
:1026F0008A4908600127FFF781F9054606E0FFF7E0
:102700007DF9401B642801D90320F1E58348006866
:10271000FF21013108400028F1D000BFFF21013125
:10272000A068884207D17C484030006908437A4954
:102730004031086140E0A068002810D17648403060
:102740000069FF210131884373494031086108461F
:102750000069091588437049403108612CE0052162
:102760000902A068884217D16B4840300069FF21F8
:1027700001318843684940310861084600690915FC
:1027800008436549403108610846006989150843D6
:102790006149403108610FE05F4840300069FF2126
:1027A000013188435C4940310861084600690915D8
:1027B000884359494031086100BF00E03EE0A0680D
:1027C000002815D0FFF71AF9054607E0FFF716F9BC
:1027D000401B5349884201D9032089E54E484030C7
:1027E0000069012149020840400A0028EED014E0A7
:1027F000FFF704F9054607E0FFF700F9401B4849D9
:10280000884201D9032073E5434840300069012123
:1028100049020840400A0028EED1012F05D13F4867
:102820000068390288433D490860012E05D13A48C5
:10283000806B310788433849886300BFA06A00284D
:1028400067D03548C0680C2108400C285FD0A06ACA
:10285000022841D1304800680121090688432E49E9
:102860000860FFF7CBF8054606E0FFF7C7F8401B06
:10287000022801D903203BE52748006801214906C9
:102880000840400E0028F0D1616B206B0843E16ADC
:1028900008432149C968FD221204914308431E4997
:1028A000C860084600680121090608431A49086003
:1028B000FFF7A4F8054606E0FFF7A0F8401B022842
:1028C00001D9032014E51448006801214906084095
:1028D000400E0028F0D01CE00F48006801210906D6
:1028E00088430D490860FFF789F8054606E0FFF7C1
:1028F00085F8401B022801D90320F9E40648006846
:10290000012149060840400E0028F0D101E00120D5
:10291000EEE40020ECE400000010024000700040F3
:102920008813000010B50446002C01D1012010BD11
:10293000206800680C21884321680860206840688E
:102940006021884321684860204600F06BF8002031
:10295000607100BF207100BF00BFE8E7F8B5044612
:102960000D460026002700BF2079012801D1022052
:10297000F8BD0120207100BF6079012825D1022017
:102980006071FFF73BF806460EE0FFF737F8801B53
:102990007D21C900884207D90420607100BF002052
:1029A000207100BF0320E3E720684068C007C00F24
:1029B0000121484048400028E7D020688068A06096
:1029C000A06828600120607100E0012700BF00209E
:1029D000207100BF3846CBE710B50446002C01D16A
:1029E000012010BD00BF2079012801D10220F8E7A5
:1029F0000120207100BF6079002803D1207120469A
:102A000000F052F802206071206800680421084339
:102A1000216808600120607100BF0020207100BFA4
:102A200000BFDEE710B598B004461E48006B0121D8
:102A3000090508431B49086338210AA8FDF75EFC15
:102A400028216846FDF75AFC20200A9000201490A7
:102A500010900AA8FFF726FC002801D000BFFEE76F
:102A600040200090000508906846FFF747F90028CD
:102A700001D000BFFEE70B48006B01210905884328
:102A8000084908630846006A012109050843054909
:102A900008620846006A0121090588430149086265
:102AA00018B010BD0010024010B598B0044638218F
:102AB0000AA8FDF723FC28216846FDF71FFC20200B
:102AC0000A9000201490012010900AA8FFF7EAFB5A
:102AD000002801D000BFFEE74020009000050890CC
:102AE0006846FFF70BF9002801D000BFFEE7044855
:102AF000006B0121090508430149086318B010BDA6
:102B00000010024070B50446002500BF2020005D83
:102B1000012801D1022070BD01212020015500BFF4
:102B200002212120015500BFCA202168486253209C
:102B30002168486200BF20688068012189028843BB
:102B400021688860206880680121890388432168A2
:102B50008860FEF753FF054615E0FEF74FFF401B68
:102B60007D21C90088420ED900BFFF20216848623C
:102B700000BF03212120015500BF00212020015565
:102B800000BF0320C7E72068C06804210840800810
:102B90000028E2D000BFFF202168486200BF012169
:102BA0002120015500BF00212020015500BF002039
:102BB000B1E70000F8B504460D461646002700BFF1
:102BC0002020005D012801D10220F8BD0121202034
:102BD000015500BF02212120015500BFCA202168F4
:102BE000486253202168486200BF20688068012144
:102BF00089020840002820D0FEF700FF074615E0B4
:102C0000FEF7FCFEC01B7D21C90088420ED900BF23
:102C1000FF202168486200BF03212120015500BF29
:102C200000212020015500BF0320CEE72068C068A6
:102C30000421084080080028E2D120688068012132
:102C40008902884321688860FEF7D8FE074615E0B0
:102C5000FEF7D4FEC01B7D21C90088420ED900BFFB
:102C6000FF202168486200BF03212120015500BFD9
:102C700000212020015500BF0320A6E72068C0687E
:102C80000421084080080028E2D0206845612068BF
:102C90008068C008C0002168886020688068304370
:102CA0002168886015480068012109050843134917
:102CB0000860084680680121090508430F498860BB
:102CC00020688068012189030843216888602068A2
:102CD00080680121890208432168886000BFFF20C5
:102CE0002168486200BF01212120015500BF002159
:102CF0002020015500BF002067E7000000040140CC
:102D000010B50446124800680421084310490860C1
:102D100010480088401C0F4908800F480068401C7C
:102D20000D4908600D480068401C0C4908600948BE
:102D30000088782801DB0DF011FF094800680028A1
:102D400004D00821064800680EF09EF810BD00006F
:102D5000007000403A0100202C00002030000020CC
:102D60002400002010B504462068C06801218902B3
:102D70000840800A00280AD02046FFF7C1FF2068DB
:102D8000C06880210840064908432168C8600120C6
:102D900000050449486101212120015510BD0000B2
:102DA0007FFBFFFF0004014010B50446002C01D159
:102DB000012010BD2120005D002805D10021202028
:102DC0000155204600F054F802212120015500BF92
:102DD000CA202168486253202168486200BF20460B
:102DE00000F0B0FC002809D000BFFF202168486235
:102DF00000BF0421212001550120DAE72068806806
:102E00001A49084021688860216960680843A169FF
:102E10000843216889680843216888602168E06860
:102E20000861206800692189090408432168086154
:102E30002068C068802188432168C8602068C06C11
:102E4000800880002168C8646169E06908432168DE
:102E5000C96C08432168C86400BFFF20216848622C
:102E600000BF0121212001550020A2E7BFFF8FFFF5
:102E700010B598B004461B48806B01210907084330
:102E800018498863FEF7EEFE0C200A90002014908B
:102E9000FF2001300C9000200F900AA8FFF702FAE3
:102EA000002801D005F013FA20200090C0020690FF
:102EB0006846FEF723FF002801D005F008FA09480C
:102EC0004030006901218904084306494031086106
:102ED000002211460220FEF7A7FE0220FEF798FE10
:102EE00018B010BD00100240F8B504460D46164655
:102EF000002700BF2020005D012801D10220F8BD7D
:102F000001212020015500BF022121200155002E62
:102F100009D1687810210840102804D16878EF2181
:102F200008400A306870002E11D1E87800F0FDFBEF
:102F30000304687800F0F9FB00020343A87800F06E
:102F4000F4FB03432878400303431F4612E06878EC
:102F500000F0DEFB0746A87800F0DAFB0746E878C9
:102F60000004697809020843A978084329784903CD
:102F70000843074600BFCA202168486253202168E1
:102F8000486200BF204600F0DDFB00280ED000BFE5
:102F9000FF202168486200BF04212120015500BFA5
:102FA00000212020015500BF0120A8E71948384022
:102FB000216848602068C068802188432168C86013
:102FC0002068806820210840002813D1204600F0A6
:102FD000CDF800280ED000BFFF202168486200BF56
:102FE00004212120015500BF00212020015500BFF0
:102FF000012084E700BFFF202168486200BF012153
:103000002120015500BF00212020015500BF0020D4
:1030100075E700003FFFFF00F8B504460D46164671
:10302000002700BF2020005D012801D10220F8BD4B
:1030300001212020015500BF022121200155002E31
:103040001BD12068806840210840002800D002E0A1
:103050000020E87000BF287800F067FB0304687860
:1030600000F063FB00020343A87800F05EFB03431B
:10307000E878000403431F4618E020688068402178
:103080000840002804D0287800F042FB074602E000
:103090000020E87000BF287800046978090208431E
:1030A000A9780843E97809040843074600BFCA2005
:1030B0002168486253202168486200BF204600F022
:1030C00041FB00280ED000BFFF202168486200BFEE
:1030D00004212120015500BF00212020015500BFFF
:1030E0000120A4E7204838402168086020688068F3
:1030F000012189048843216888602969E8680843B8
:10310000216889680843216888602068C068802138
:1031100088432168C8602068806820210840002812
:1031200013D1204600F022F800280ED000BFFF2067
:103130002168486200BF04212120015500BF002101
:103140002020015500BF012071E700BFFF2021684A
:10315000486200BF01212120015500BF002120202D
:10316000015500BF002062E77F7F7F0070B50446F5
:1031700000252068C068A02188432168C860FEF748
:103180003DFC054608E0FEF739FC401B7D21C900E7
:10319000884201D9032070BD2068C0682021084002
:1031A0000028F0D00020F6E7704710B50446002C48
:1031B00001D1012010BD022169200155206800685D
:1031C00040084000216808600020216808602168EC
:1031D000486021688860204600F000F90020E06621
:1031E00000216920015500BF6820015500BF002063
:1031F000E0E7000010B5044606492068884202D185
:103200000AF024FC05E004492068884201D10AF054
:103210003BFD10BD004800400038014010B5044699
:103220002068C069C007C00F00280FD02068006860
:10323000FF2101310840002808D0012021680862E0
:10324000E06E01210843E066692001552068C069ED
:103250000221084000280FD020688068C007C00FF6
:10326000002809D0022021680862E06E042108438A
:10327000E0660121692001552068C06904210840E9
:1032800000280FD020688068C007C00F002809D030
:10329000042021680862E06E02210843E0660121F3
:1032A000692001552068C0690821084000280FD016
:1032B00020688068C007C00F002809D00820216856
:1032C0000862E06E08210843E0660121692001558B
:1032D000E06E002802D02046FFF78CFF2068C0690E
:1032E00001210905084000280ED020688068890067
:1032F0000840002808D08810216808620121692050
:1033000001552046FFF750FF2068C0692021084082
:10331000002807D0206800680840002802D0204616
:1033200002F0FAFE2068C06980210840002807D01A
:10333000206800680840002802D0204603F0CCFB3B
:103340002068C06940210840002807D02068006834
:103350000840002802D0204605F036F910BD10B50F
:103360000446002C01D1012010BDA069002800D026
:1033700000E000BF6920005D002805D10021682021
:103380000155204600F08EF8022169200155206881
:1033900000684008400021680860204600F0C0FB3B
:1033A000606A002802D0204600F012FB20684068C6
:1033B0000921C902884321684860206880682A2161
:1033C00088432168886020680068012108432168DB
:1033D0000860204600F074FBC6E7000038B50446DC
:1033E0002C49206888422AD100BF2B48806B0121DC
:1033F000890408432849886300BF0846C06A04213D
:1034000008432549C8620846C06A04210840009064
:1034100000BF00BF2048806A090408431E49886233
:103420000846806A0121890488431B49886230214B
:103430001A48FEF753F91D20FEF7DEFB29E000BF16
:103440001548406B0121890308431349486300BFB5
:103450000846C06A022108430F49C8620846C06A8C
:1034600002210840009000BF00BF0B48406A49039A
:103470000843094948620846406A01218903884394
:1034800005494862C0210648FEF728F91B20FEF7CF
:10349000B3FB38BD00480040001002400008005057
:1034A0000004005038B5044624492068884220D1E1
:1034B00007F094F800BF2248806B0121890408437B
:1034C0001F49886300BF0846C06A042108431C499D
:1034D000C8620846C06A04210840009000BF00BFCF
:1034E000012203211D20FEF79FFB1D20FEF790FB0C
:1034F00023E01449206888421FD107F0DBFE00BF9B
:103500000F48406B0121890308430D49486300BF00
:103510000846C06A022108430949C8620846C06AD1
:1035200002210840009000BF00BF012203211B20A0
:10353000FEF77AFB1B20FEF76BFB38BD004800400E
:10354000001002400038014010B503466920C05CFD
:10355000012803D06920C05C122865D1002901D060
:10356000002A01D1012010BD00BF6820C05C0128E5
:1035700001D10220F7E701246820C45400BF00BF36
:1035800024039868A0420AD11869002803D1274C67
:103590005C20C45220E0FF245C20C4521CE09868E8
:1035A00000280AD11869002803D1FF245C20C452E6
:1035B00012E07F245C20C4520EE0012424079868A6
:1035C000A04209D11869002803D17F245C20C4528D
:1035D00002E03F245C20C45200BF0020D86669206E
:1035E000C05C122803D132246920C45402E0222492
:1035F0006920C45418680068FF24013420431C6803
:10360000206018688068012420431C68A06000BF07
:1036100000246820C45400BF186800682024204398
:103620001C68206000209EE702209CE7FF0100004C
:1036300000BF70470DF092FA00BFFEE770B5044678
:103640000025FEF7DBF905460AE0FEF7D7F9401B37
:103650007D21C900884203D90120A063032070BDE9
:10366000206880682021084040090028EDD0002013
:10367000F5E7000010B50EF069FC0348FFF7CEFD3A
:103680000EF072FC10BD00000C39002000BF00BF1E
:103690000DF064FA00BFFEE708B50021C9431B4ADC
:1036A000D16200BF1146C96A01221143174AD16293
:1036B0001146C96AC907C90F009100BF00BF114672
:1036C000C96A02221143114AD1621146C96A022213
:1036D0001140009100BF00BF0C49C96A0422114388
:1036E0000A4AD1621146C96A04221140009100BF02
:1036F00000BF0649C96A08221143044AD162114633
:10370000C96A08221140009100BF08BD00100240A4
:10371000014600BFF020084000110A23584302462A
:103720000807000F8018C0B270470146002203E06E
:10373000521C08460A38C1B20A29F9DA1007000EED
:103740000843704770B5044600252068C0684021D2
:103750000840002815D1401E2168C860FEF74EF9C8
:10376000054608E0FEF74AF9401B7D21C900884262
:1037700001D9032070BD2068C0684021084000289E
:10378000F0D00020F6E7000010B50EF0DFFB034894
:10379000FFF7E8FA0EF0E8FB10BD0000E835002066
:1037A000F0B593B004460F46154612970195A06EEA
:1037B000019D4019A066A16E606E019DA94201D2D3
:1037C000012100E0002140186066206E00280FD023
:1037D000206E401940280BDA21462031226E501805
:1037E0002A461299FCF722FD206E4019206641E01E
:1037F00035E04023216E5A1A23462033C818129907
:10380000FCF714FD12984022216E511A40181290B4
:103810004021206E081A2D1A002618E0B00021461B
:103820002031085C0006B100491C22462032515C60
:1038300009040843B100891C515C09020843B10026
:10384000C91C515C0843B10002AA5050761C102ECE
:10385000E4DB02A9204601F0B7FA00202066206EC2
:1038600040194028C5DA2A46204620301299FCF734
:10387000DDFC256613B0F0BDF0B593B004460E46EE
:10388000206E382804DB7821206E081A129003E09D
:103890003821206E081A1290606EC700A16E490F81
:1038A0000F43A06EC000019002A81299FCF726FDFC
:1038B00080216846017202A92046129AFFF770FF24
:1038C000390E684601723802010E684641723804AA
:1038D000010E68468172C7720198010E6846017335
:1038E00001980002010E6846417301980004010E20
:1038F000684681730198C1B26846C173082202A963
:103900002046FFF74DFF002518E0A8002058000EC4
:10391000A9007054A80020580002010EA800401C05
:103920003154A800205A0004010EA800801C315414
:10393000A800215CA800C01C31546D1C082DE4DBDC
:1039400013B0F0BD00B50246104603F0A3F8002006
:1039500010669066506600BD10B5FEF755F80CF085
:1039600093FD0DF0F3FA10BD15480068FF210131F9
:103970000843134908600846C068124908401049C6
:10398000C86008460068104908400D4908600846AC
:10399000806840084000886008460068012189046A
:1039A0008843074908600846C068FD210904884328
:1039B0000349C86000200861C80304498860704753
:1039C000001002400C40FF88F6FFF6FE00ED00E01C
:1039D000818CC907C90F002908D0016849680122F4
:1039E00052049143826A1143026851600222416A83
:1039F0001140002907D001684968D2039143C26A87
:103A00001143026851600422416A1140002907D025
:103A10000168496812049143026B114302685160C6
:103A20000822416A1140002907D001684968120341
:103A30009143426B1143026851601022416A114068
:103A4000002907D00168896812029143826B1143F3
:103A5000026891602022416A1140002907D0016864
:103A6000896812029143C26B11430268916040223F
:103A7000416A1140002915D00168496892039143B9
:103A8000026C11430268516001221205016C9142DF
:103A900008D101684968032252059143426C1143E1
:103AA000026851608022416A1140002907D00168F4
:103AB000496812039143826C114302685160704758
:103AC00010B504462068006808210840082809D17C
:103AD000124B00228104204600F00CFA002801D08D
:103AE000032010BD2068006804210840042809D183
:103AF0000A4B00220105204600F0FCF9002801D005
:103B00000320EEE700BF00216820015500BF002020
:103B1000E0660121692001550020E2E7F055000030
:103B2000F0B58BB0044600260025002700200A903F
:103B3000E2492068884201D1012000E000200028ED
:103B400000D000E000BF2169A06808436169084314
:103B5000E1690843064620680068D94908403043B7
:103B60002168086020684068032109038843E168F0
:103B7000084321684860A669D0492068884201D17D
:103B8000012000E00020002801D1206A06432068BF
:103B900080680B210902884330432168886000BF98
:103BA000C8492068884216D1C748C0688007800F7E
:103BB000002806D0012808D0022804D0032808D104
:103BC00005E0012506E0022504E0042502E00825C1
:103BD00000E000BF38E0BD492068884216D1BA48ED
:103BE000C0680C210840002806D0042808D0082806
:103BF00004D00C2808D105E0002506E0022504E0E9
:103C0000042502E0082500E000BF1DE0AB49206864
:103C1000884219D1AC48C0680321890208400028B5
:103C200008D001218902401A08D0401A04D0401A55
:103C300008D105E0002506E0022504E0042502E0A5
:103C4000082500E000BF00BF00BF9C4920688842F3
:103C500001D1012000E0002000287AD0002D06D0FC
:103C6000022D25D0042D53D0082D73D173E0626846
:103C700010460021FCF78CFE07910690FEF778FABB
:103C8000002101910090FCF783FE0022904B0391EC
:103C90000290FCF781FE05910490079B069AFCF7C1
:103CA000F1FB09910890FCF711FE2168C86067E0FC
:103CB000854840380068102108400009002813D0CA
:103CC000626810460021FCF763FE02460B4607912E
:103CD000069000207F49FCF7D5FB09910890FCF77E
:103CE000F5FD2168C86012E0626810460021FCF70B
:103CF0004FFE02460B460791069000207649FCF7DE
:103D0000C1FB09910890FCF7E1FD2168C86037E02C
:103D1000626810460021FCF73BFE07910690FEF713
:103D20004BFA002101910090FCF732FE0022684B13
:103D300003910290FCF730FE05910490079B069AD0
:103D4000FCF7A0FB09910890FCF7C0FD2168C86052
:103D500016E016E013E0626810460021FCF718FE3A
:103D600002460B460791069000205C49FCF78AFB4F
:103D700009910890FCF7AAFD2168C86000E000BF27
:103D80009AE00121C903E069884251D12B000AF071
:103D900051F90906101A42304242423A4200FEF7F7
:103DA000E7F9400009906168FCF7BBFA80B20A901D
:103DB00032E0FEF7EFF9400009906168FCF7B1FAD4
:103DC00080B20A9028E0404840380068102108403E
:103DD0000009002806D042486168FCF7A2FA80B2C8
:103DE0000A9005E03F486168FCF79BFA80B20A90B0
:103DF00012E0FEF7E1F9400009906168FCF791FAE2
:103E000080B20A9008E0012000046168FCF789FA9A
:103E100080B20A9000E000BF00BF33490A98084012
:103E200007460A980007400F07432068C76043E031
:103E30002B000AF0FFF809060F183F2E3F3F3F37CF
:103E40003F00FEF795F909906168FCF76AFA21686E
:103E5000C86030E0FEF79EF909906168FCF761FAEE
:103E60002168C86027E018484038006810210840E1
:103E70000009002806D01D486168FCF752FA216845
:103E8000C86005E01A486168FCF74BFA2168C86011
:103E900011E0FEF791F909906168FCF742FA216898
:103EA000C86008E00120C0036168FCF73AFA2168A5
:103EB000C86000E000BF00BF0BB0F0BD004800408C
:103EC000F369FFEF00380140401002400044004019
:103ED000000070408084CE418084EE41000060414B
:103EE00000127A000048E801F0FF000000093D00E0
:103EF0000024F400FFB581B004460E461D4600279D
:103F0000FDF77CFD07460398002839D12DE0681C99
:103F100000282AD0002D04D0FDF770FDC01BA84258
:103F200023D92068006880218843216808602068C0
:103F30000068202188432168086020680068FF210C
:103F4000013188432168086020688068400840008B
:103F50002168886001216920015500BF0021682087
:103F6000015500BF032005B0F0BD2068C069304096
:103F7000B04201D1012000E000200028C7D037E086
:103F80002CE0681C002829D0002D04D0FDF736FD58
:103F9000C01BA84222D9206800688021884321687C
:103FA0000860206800682021884321680860206834
:103FB0000068FF210131884321680860206880681B
:103FC000400840002168886001216920015500BF38
:103FD00000216820015500BF0320C4E72068C069A4
:103FE0003040B04201D1012000E000200028C8D1BB
:103FF0000020B8E710B50DF0A9FF0348FFF70EF950
:104000000DF0B2FF10BD00007C39002010B50DF09E
:104010009DFF0348FFF702F90DF0A6FF10BD000059
:104020000C39002070B504460025206880688007A0
:10403000800F012807D120680068C007C00F002842
:1040400001D0012000E00020002839D120688068DC
:104050001C490840002801D1012000E00020002870
:1040600009D1A06D10210843A065E06D012108432E
:10407000E065012070BD2068806801210843216847
:104080008860012004F0D0FCFDF7B8FC05460EE086
:10409000FDF7B4FC401B0A2809D9A06D1021084384
:1040A000A065E06D01210843E0650120E2E720689A
:1040B0000068C007C00F0121484048400028E7D0F1
:1040C0000020D7E717000080F0B5002488E0A000AA
:1040D000454909680F5CA00043490968085CA100D4
:1040E000414A1268891849784840A1003E4A12683E
:1040F000891889784840A1003B4A12688918C97814
:1041000005464D40A00038490968085CA100364AC0
:1041100012688918497848400646304609F094FEEE
:104120000646A00030490968085C314669404840AD
:10413000A1002D4A12685054A0002B49096840186C
:104140004078A100284A12688918897848400646B4
:10415000304609F079FE0646A00023490968401858
:104160004078314669404840A1001F4A12688918CA
:104170004870A0001C49096840188078A1001A4ABC
:1041800012688918C97848400646304609F05CFE36
:104190000646A000144909684018807831466940F5
:1041A0004840A100104A126889188870A0000E4982
:1041B00009684018C07878400646304609F044FE49
:1041C0000646A000084909684018C0783146694091
:1041D0004840A100044A12688918C870601CC4B223
:1041E000042C00DA73E7F0BD9001002030B5002305
:1041F00014E00124E4030440241280250D406C40A7
:10420000002C05D04404200C04465440204601E014
:104210004404200C4C06210E5C1CA3B2082BE8DBE6
:1042200030BD0000FFB589B014461D46002008903F
:10423000002C01D10DB0F0BD0CF0ACFC2A460021E1
:1042400020460CF0E3F90998002802D009980CF0F8
:1042500091F9129802F0D8FA079000265AE03048F7
:104260000078022802D1C01E089056E00CF092FCA3
:10427000002008907D22D200032101A80CF02EFE20
:1042800001A807C804AB07C30498082800D03FE082
:104290000598C007C00F002828D0224800880028B1
:1042A00024D020480788AF4200DD2F461E488442B4
:1042B00004D03A46014620460CF08FF90A980028AF
:1042C0000BD020460A990CF0C0FA00B2089008986A
:1042D000002802D038B208901FE014A120460CF04C
:1042E000B4FA002802D00020089016E002210598B8
:1042F000084000280BD0002008900CF0A7F8C82038
:104300000CF089FC4B20C0010CF0DAF800BF00BFB4
:10431000701C86B207988642A1D300BF089889E72F
:10432000640000204C0000203C0200204552524F07
:104330005200000088B000BF00200490F0E0002090
:104340007849087009F05AFF0022D2437648016884
:1043500001A80CF081FC01A807C805AB07C30598AC
:10436000102800D0DCE00698049009F0C1FF6846F0
:10437000007C04210840002812D06C4800780028F6
:1043800000D1CDE00CF062F8C8200CF044FC4B20CA
:10439000C0010CF095F80BF01FF90BF039F9BFE0F4
:1043A0000120604908706846007C302108400028E0
:1043B0007CD00CF0EFFB0DF0EBFB04B2002C00DC2A
:1043C000AEE00BF0FBF90446002C05DC0020584958
:1043D000087058490870A3E001205749087000266A
:1043E00000BF55480078012805D1410253480AF022
:1043F00089FE064608E050480078022804D04E485E
:104400000078032800D05BE0002E00DC58E0002597
:1044100000BF681C85B248480078012803D0464890
:104420000078022804D13146444809F0C9FE064606
:10443000314642480BF070F90446002C00DC0AE0DB
:10444000FF2101313E480BF015F90446002C00D045
:1044500001E0032DDDDB00BF002C00DC30E0A1B269
:1044600037480BF029F90446802C00D9802468468F
:10447000407CA1B201235B02304A009030480AF030
:104480006DFB04462C480078042810D12D48008884
:10449000002803DD0DF0E0FA2A4908802948008849
:1044A000002804DD01202449087008E037E0002CD2
:1044B00000DC05E0A6B200202349088000BF90E799
:1044C00000BF002C05DC21480088401C81B21F4839
:1044D00001800020164908700420164908700DF06C
:1044E00047FC002C11DD1A48007804280DD1012268
:1044F0000D48016801A80CF001FC01A807C805AB34
:1045000007C30598102800D10AE00BF065F80BF0FE
:104510007FF806200649087000200649087000BF91
:104520000DE700005800002050000020600000202F
:104530006200002063000020610000200C36002093
:104540003C0200203A0200203E00002014400020DF
:10455000CC00002086B006F0D5FE0EF049F806F03B
:104560000DFF0DF0EFFB0BF069FF0CF0B3F801202D
:104570000CF0B8F80CF0E4F90CF0BAF90CF0CCF946
:1045800039480578394804786DE00022D2430F217C
:1045900068460CF0A3FC684607C803AB07C30221BA
:1045A00004980840002817D0314800680F2802D22C
:1045B0000F202F4908602C4805782C4804780020EB
:1045C0002949087006202949087009F0EDFE27489E
:1045D00004700020274908700498C007C00F002805
:1045E00024D0234800680F2802D20F2020490860F9
:1045F0001D4805781D48047800201B4908700520D7
:104600001A4908700DF0B4FB09F0A4FE7D200001EA
:104610000CF001FB14480078002807D113480078FB
:10462000052803D11048057010480470082104982B
:10463000084000280CD00CF0C9F90A200CF0EBFA65
:1046400009480078802803D14B20C0010CF0F8F90C
:10465000042104980840002805D000BF09F000FF9D
:1046600000200549088090E76200002063000020D8
:1046700020000020080200205C01002070B50446E4
:104680000025206880688007800F012807D12068F6
:104690000068C007C00F002801D0012000E0002002
:1046A000002837D02068806805210840012800D103
:1046B00000E0002000280AD000BF206880680221A6
:1046C00008432168886003202168086009E0A06D24
:1046D00010210843A065E06D01210843E065012039
:1046E00070BDFDF78BF905460EE0FDF787F9401B1D
:1046F0000A2809D9A06D10210843A065E06D0121A9
:104700000843E0650120EBE720688068C007C00F20
:104710000028EAD10020E3E730B50246002018E087
:10472000002112E0130184001B195B180A4CE35CA2
:1047300084000A4D2D686419645C63408400074D51
:104740002D68641963544B1CD9B20429EADB431C5D
:10475000D8B20428E4DB30BD943B00209001002057
:1047600010B5002013E000210DE08A00094B1B6802
:10477000D218125C084B9A5C8B00064C24681B19FB
:104780001A544A1CD1B20429EFDB421CD0B20428CF
:10479000E9DB10BD90010020383C010802460020F2
:1047A0000AE0135C412B05DB135C5A2B02DC135C23
:1047B00020331354431C98B28842F2DB7047014601
:1047C000302906DB392904DC0A46303A0243D0B2EC
:1047D00012E0412906DB462904DC0A46373A024347
:1047E000D0B209E0612906DB662904DC0A46573AA3
:1047F0000243D0B200E000BF7047000030B5032391
:104800001B0317484407640F002C05D0C01DC008C7
:10481000C000134C041B1B1B0246124C22600024D8
:10482000104D6C60D0180838C008C0000E4C2060D5
:1048300000240D4D2D686C600B4D2D682C601146C9
:10484000441A4C60084C24680C60084D4C682C607D
:10485000074D4C682C600124E407064D2C6030BDE8
:10486000AC050020180100202001002028010020B4
:10487000240100202C01002000BF09F0B3F81348E8
:104880000068012801D90DF0E9FC05F0F1FE0446AD
:10489000022C1AD30DF03EFE0D4800680D49096840
:1048A000884201D3012000E00020002803D10A49FA
:1048B0000AA00DF005FB05F0DBFE0446022C02D336
:1048C00020460DF0CBFB0EF0A9FED6E7BC0400207D
:1048D00000010020E4000020AB0A00002E2E5C6FD7
:1048E000732D6B65726E656C5C6B65726E656C5C6E
:1048F0007461736B732E630010B500BF3D480BF0FD
:104900008DFD00BF3C48C47E012C00D102243A48F2
:10491000C030C06CC007C00FA04201DB002C22D108
:104920003548C030C06C0007400F03281BDA3248FE
:10493000C030C06CC006C00F002814D12E48C03053
:10494000C06C8006C00F00280DD12B48C030C06C51
:104950004006C00F002806D12748C030C06C0006B2
:10496000C00F002843D02448C030C06CC007C00F1F
:10497000A04205DB002C03D020A00BF023FD38E083
:104980001D48C030C06C0007400F032803DB1DA08A
:104990000BF018FD2DE01848C030C06CC006C00FE9
:1049A000002803D019A00BF00DFD22E01248C03002
:1049B000C06C8006C00F002803D016A00BF002FDCB
:1049C00017E00D48C030C06C0006C00F002803D0AF
:1049D00012A00BF0F7FC0CE00748C030C06C40069A
:1049E000C00F002805D00FA00BF0ECFC01E003F095
:1049F00027FD10BD0000FFFFD43E00206E662D6C29
:104A00006F63200073742D6C6F63200073652D6CD1
:104A10006F6320006E632D6C6F63200073682D6CD4
:104A20006F6320006E672D6C6F632000FFB583B04D
:104A300005460F4614460A2C01DD07B0F0BD386864
:104A4000029000260020285516E00A210298FBF764
:104A500068FC01911A480199415C601E2954701C40
:104A600086B20A210298FBF75CFC0290601EC4B279
:104A70000298002800D101E0002CE6DC00BF09E02C
:104A80003021601E2954701C86B2601EC4B2002CF6
:104A900000D102E006988642F2DD00BF7879002856
:104AA00005D0002C03DD2D21601E2954C4B203E083
:104AB0002021601E2954C4B2002CF9DC00BFBCE7E1
:104AC0003038010888B0002007900AF019FF0BF079
:104AD000A5FA0BF0F5F809F091FD05F0CFFE464878
:104AE000007A622804DB01220321022008F0BEFCC8
:104AF0000CF09EF807907DE00CF09AF80799401AA8
:104B0000079000BF0022D243D10D01A80CF0E6F9B6
:104B100001A807C804AB07C30CF08AF807900598F2
:104B2000C007C00F002804D000203449086005F0F9
:104B3000F3F908210598084000280ED004F008FC7D
:104B40000BF00CF902F004FD03F0F6FD06F0B6FDE3
:104B500008F0E4FC0BF038FE00BF02210598084085
:104B6000002803D008F0E2FE02F0F2FC4021059894
:104B70000840002801D003F0DFFD0421059808401B
:104B800000281AD009F03AFB00F09CFC1C48007881
:104B9000002812D118488030806C0002400F06288F
:104BA0000BD10120164908701348007A622804DBF3
:104BB00001220921022008F059FC10210598084023
:104BC000002801D004F088F820210598084000282A
:104BD00001D009F00FFDFF210131059808400028A0
:104BE00008D008480078002804D0012208210220BB
:104BF00008F03CFC80E70000143F00203800002053
:104C0000080200201800002024490968487B234935
:104C100009684A7A214909684A73204909684A792A
:104C20001E4909684A721D4909684A781B49096882
:104C30004A711A49096848701849096888781749FB
:104C40000968897A154A126891701449096888724E
:104C5000124909688879114909688A7B0F490968EE
:104C60008A710E49096888730C490968C8780B492C
:104C70000968C979094A1268D17008490968CA7A6D
:104C800006490968CA7105490968CA7B0349096868
:104C9000CA7202490968C873704700009001002079
:104CA00038B500201FE08300434C2468E45C830097
:104CB000424DEC5483005B1C3F4C2468E45C830051
:104CC0005B1CEC5483009B1C3B4C2468E45C83001D
:104CD0009B1CEC548300DB1C374C2468E45C830091
:104CE000DB1CEC54401C0428DDD361E0002107E00C
:104CF000431E9B005B18314CE35C6C466354491CBB
:104D00000429F5D383079B0F002B24D16B461A7817
:104D10005C781C709C785C70DC789C70DA701B7816
:104D2000274CE45C6B461C705B78254CE45C6B465E
:104D30005C709B78224CE45C6B469C70DB78204C6A
:104D4000E45C6B46DC701B7884081E4D2C5D634070
:104D50006C46237000E000BF031F9B00174CE35C10
:104D60006C46247863408400144D2B55031F9B0030
:104D70005B1C2C46E45C6B465B7863408400641CDF
:104D80002B55031F9B009B1C2C46E45C6B469B78B9
:104D900063408400A41C2B55031F9B00DB1C2C4686
:104DA000E35C6C46E47863408400E41C2B55401CB3
:104DB0002C289BD338BD000094010020943B002098
:104DC000383B0108383D0108F3B5D7B0002006E0B4
:104DD0008400589B1B59840007AD2B51401C1028A0
:104DE000F6DB102048E0831E9B0007ACE358DB0392
:104DF000841EA40007AD2C59640C2343841EA40018
:104E00002C596403851EAD0007AE7559ED0C2C437B
:104E10006340841EA40007AD2C59A40A6340C41F3C
:104E2000A4002C591C1903460F3B9B00EB5C5B064E
:104E300005460F3DAD007559ED092B4305460F3D65
:104E4000AD007559AD0306460F3EB60007AFBE591B
:104E5000B60C35436B4005460F3DAD0007AE7559A6
:104E6000ED086B40E4180346103B9B0007ADEB5880
:104E7000E31884002B51401C4028B4DB579B1B686F
:104E80000693579B5968579B9A68579BDB68059315
:104E9000579B1B690493579B5B690393579B9B69C3
:104EA0000293579BDB69019300201EE2049CA40639
:104EB000049DAD092C43049D6D05049EF60A3543FF
:104EC0006C40049DED01049E760E35436C40019DBF
:104ED0006619039D049C2C40049F029DBD436C40B9
:104EE00034198500FE4E75596419850007AE755951
:104EF0006319069CA407069DAD082C43069DED048E
:104F0000069E760B35436C40069DAD02069EB60D9F
:104F1000354326466E40069C0C40069D15406C406D
:104F20000D4615406C4034190094059CE418059416
:104F3000009C1C190194059CA406059DAD092C43F9
:104F4000059D6D05059EF60A35436C40059DED01F6
:104F5000059E760E35436540029C2E19049D059CE6
:104F60002C40059F039DBD436C403519441CA40093
:104F7000DB4E34592D19441CA40007AE34592B19AB
:104F8000019CA407019DAD082C43019DED04019EE9
:104F9000760B35436C40019DAD02019EB60D354345
:104FA00026466E40069D019C2C40019D0D406C40A4
:104FB000069D0D406C4034190094D218009C1C19B9
:104FC0000294940695092C435505D60A35436C4046
:104FD000D501560E35436C40039D6619059C14405F
:104FE000049D95436C403519841CA400BC4E345973
:104FF0002D19841CA40007AE34592B19029CA40758
:10500000029DAD082C43029DED04029E760B3543B4
:105010006C40029DAD02029EB60D354326466E40A1
:10502000019D029C2C40069F029D3D406C40019DCD
:105030003D406C4034190094C918009C1C1903941D
:105040008C068D092C434D05CE0A35436C40CD01AD
:105050004E0E35436C40049D66190C461440059D68
:105060008D436C403519C41CA4009D4E34592D1934
:10507000C41CA40007AE34592B19039CA407039D3C
:10508000AD082C43039DED04039E760B35436C4025
:10509000039DAD02039EB60D354326466E40029D2C
:1050A000039C2C40019F039D3D406C40029D3D4070
:1050B0006C4034190094069CE4180694009C1C195A
:1050C0000494069CA406069DAD092C43069D6D051F
:1050D000069EF60A35436C40069DED01069E760E4F
:1050E00035436C40059D6519069C0C401746069E8D
:1050F000B7437C402D19041DA400794E34592D1955
:10510000041DA40007AE34592B19049CA407049D68
:10511000AD082C43049DED04049E760B35436C4092
:10512000049DAD02049EB60D354326466E40039D98
:10513000049C2C40029F049D3D406C40039D3D40DB
:105140006C4034190094019CE4180194009C1C19D3
:105150000594019CA406019DAD092C43019D6D059C
:10516000019EF60A35436C40019DED01019E760ECD
:1051700035436C40A518069E019C34400F46019EA5
:10518000B7437C402D19441DA400554E34592D19A8
:10519000441DA40007AE34592B19059CA407059D96
:1051A000AD082C43059DED04059E760B35436C4000
:1051B000059DAD02059EB60D354326466E40049D05
:1051C000059C2C40039F059D3D406C40049D3D4047
:1051D0006C4034190094029CE4180294009C1A1943
:1051E000029CA406029DAD092C43029D6D05029E02
:1051F000F60A35436C40029DED01029E760E354362
:105200006C406618019D029C2C40029F069DBD4388
:105210006C403519841DA400314E34592D19841D5C
:10522000A40007AE34592B19940795082C43D504D4
:10523000560B35436C409502960D354326466E401D
:105240001546059C2540049C14406540049F059C20
:105250003C40654074190094039CE4180394009C3E
:105260001919039CA406039DAD092C43039D6D05EC
:10527000039EF60A35436C40039DED01039E760EB6
:1052800035436C40069D6619029D039C2C40039F8C
:10529000019DBD436C403519C41DA400104E345906
:1052A0002D19C41DA40007AE34592B198C078D0885
:1052B0002C43CD044E0B35436C408D028E0D35438F
:1052C00065400C461440059E0E407440059E1640F5
:1052D00074402C190094049CE4180494009C01E090
:1052E000383A01081C1906940830402800DADDE538
:1052F000579B1C68069BE418579B1C60579B5B6878
:105300005C18579B5C60579B9B689C18579B9C60E4
:10531000579BDC68059BE418579BDC60579B1C6916
:10532000049BE418579B1C61579B5C69039BE41822
:10533000579B5C61579B9C69029BE418579B9C613F
:10534000579BDC69019BE418579BDC6159B0F0BDA9
:105350000146002003290ED1384A926C8B069A43ED
:10536000D318364A9364D26C40239A434032334B6D
:10537000DA64012056E002291CD1304AD26C402365
:105380009A432E4BDA641A46926C9200D20F002A8E
:1053900048D11A46926C03239B069A438B06D31876
:1053A000264A9364926C0B079A43D318234A93645A
:1053B000012037E0012921D1204AD26C40239A43B1
:1053C0001E4BDA641A46926C03239B069A438B06A3
:1053D000D3181A4A9364926C4B079A43174B9A64FA
:1053E0001A46926CD200D20F002A1BD11A46926C38
:1053F0000B079A43D318114A936413E00F4AD26CF7
:1054000040239A430D4BDA641A46926C03239B06A1
:105410009A430A4B9A641A46926C01231B079A43DB
:10542000064B9A64032901D1002805D1034AD26CA6
:1054300040239A43014BDA6470470000943F0020F8
:1054400010B50AF03FFD00BF18480069042108406C
:10545000002800D025E072B615480068401C1449A9
:10546000086062B6012013490870134800680AF00A
:10547000AFFC00BF1148007802280AD11048806CA8
:105480000721490588430121490541180C488164D9
:1054900006E00B48806C0721490588430849886469
:1054A00000BF00BF0AF01AFD10BD00000008005048
:1054B000F0010020F40100202C000020CC0100208D
:1054C000943F002010B51048806C0001800F002828
:1054D00018D00D48806C0001800F012809D10B48BD
:1054E00000688007800F00280CD10A2000F018FC0B
:1054F00008E00548806C0001800F012802DD0A20C9
:1055000000F00EFC10BD0000943F0020EC010020D4
:1055100010B5044601F01CFD002201218903214839
:105520000AF0D6FE00BF00BF00BF00BF00BF00BF33
:1055300000BF00BF00BF002C06D00122520311465D
:1055400018480AF0C5FE05E000220121490315486C
:105550000AF0BEFE00BF00BF00BF00BF00BF00BF1B
:1055600000BF00BF00BF0122920311460D480AF0A0
:10557000AFFE00BF00BF00BF00BF00BF00BF00BF45
:1055800000BF00BF00220121890306480AF0A0FEE7
:1055900000BF00BF00BF00BF00BF00BF00BF00BF13
:1055A00000BF10BD000400500C4840790C49087041
:1055B0000A4800790B4908700848C0780A49087001
:1055C00006488078094908700448407808490870FE
:1055D0000248007807490870704700003C0100202D
:1055E0001A0000201B0000201C0000201D000020CD
:1055F0001E0000201F000020FEB5174DFF270137B9
:105600007D2000013B462A4614A1009014A0FEF71D
:1056100009FE0446002C01DC2046FEBD01AA13A1B0
:1056200028460BF03BF904B2002C01D12046F4E7E8
:1056300068468088C01D81B20191694689886818D2
:1056400001AA2C210BF0ACFA06466D24E443701E2F
:10565000001904B22046E0E73C0200204F4B000056
:1056600041542B434553510D0A0000002B43455331
:10567000513A20007CB51A4CFF2601367D200001EE
:105680003346224617A1009017A0FEF7CBFD054632
:10569000002D01DC28467CBD01AA15A120460BF097
:1056A000FDF805B2002D01D12846F4E76846808850
:1056B000801D81B2019168468088211802220E481F
:1056C0000AF08BFF684680882018C11C05220A4812
:1056D000801C0AF082FF00200749C8712846DAE7DB
:1056E0003C0200204F4B00004154490D0A000000CD
:1056F0004C3632305F760000BC00002010B5044606
:10570000206B0CF055FC20460CF052FC10BD000044
:1057100030B588B0002007904FE207988000FE491E
:105720000968085C069007988000FB4909684018E2
:105730004078059007988100F7480068081880783D
:10574000049007988000F44909684018C0780390D5
:10575000069808F079FB0446069808F075FB02905D
:1057600008F072FB4440069808F06EFB019008F0C8
:105770006BFB029008F068FB4440069808F064FB5D
:10578000009008F061FB019008F05EFB029008F0C9
:105790005BFB059808F058FB05460598454008F066
:1057A00053FB029008F050FB059808F04DFB019068
:1057B00008F04AFB029008F047FB4540059808F0C6
:1057C00043FB009008F040FB019008F03DFB029085
:1057D00008F03AFB6C40049808F036FB0498054644
:1057E00008F032FB029008F02FFB4540049808F0C7
:1057F0002BFB019008F028FB029008F025FB4540A8
:10580000049808F021FB009008F01EFB019008F0BE
:105810001BFB029008F018FB6C40039808F014FB87
:105820000398054608F010FB029008F00DFB039862
:1058300008F00AFB019008F007FB029008F004FB57
:105840004540039808F000FB009008F0FDFA019035
:1058500008F0FAFA029008F0F7FA6C400798800016
:10586000AD4909680C54069808F0EEFA069804460B
:1058700008F0EAFA029008F0E7FA069808F0E4FA6D
:10588000019008F0E1FA029008F0DEFA4440069830
:1058900008F0DAFA009008F0D7FA019008F0D4FA8C
:1058A000029008F0D1FA059808F0CEFA054605985E
:1058B00008F0CAFA029008F0C7FA4540059808F0C7
:1058C000C3FA019008F0C0FA029008F0BDFA454012
:1058D000059808F0B9FA009008F0B6FA019008F0BF
:1058E000B3FA029008F0B0FA6C40049808F0ACFAF1
:1058F00005460498454008F0A7FA029008F0A4FA7B
:10590000049808F0A1FA019008F09EFA029008F0BD
:105910009BFA4540049808F097FA009008F094FA32
:10592000019008F091FA029008F08EFA6C4003980A
:1059300008F08AFA0398054608F086FA029008F003
:1059400083FA4540039808F07FFA019008F07CFA4A
:10595000029008F079FA4540039808F075FA009033
:1059600008F072FA019008F06FFA029008F06CFAF1
:105970006C40079880006849096840184470069890
:1059800008F062FA0698044608F05EFA029008F001
:105990005BFA4440069808F057FA019008F054FA70
:1059A000029008F051FA4440069808F04DFA009031
:1059B00008F04AFA019008F047FA029008F044FA19
:1059C000059808F041FA0598054608F03DFA02905E
:1059D00008F03AFA059808F037FA019008F034FA1E
:1059E000029008F031FA4540059808F02DFA009031
:1059F00008F02AFA019008F027FA029008F024FA39
:105A00006C40049808F020FA0546049808F01CFA47
:105A1000029008F019FA4540049808F015FA019030
:105A200008F012FA029008F00FFA4540049808F0C6
:105A30000BFA009008F008FA019008F005FA0290BD
:105A400008F002FA6C40039808F0FEF90546039846
:105A5000454008F0F9F9029008F0F6F9039808F0CB
:105A6000F3F9019008F0F0F9029008F0EDF94540E3
:105A7000039808F0E9F9009008F0E6F9019008F0C1
:105A8000E3F9029008F0E0F96C4007988000224AA0
:105A9000126880188470069808F0D6F904460698B3
:105AA000444008F0D1F9029008F0CEF9069808F0C9
:105AB000CBF9019008F0C8F9029008F0C5F944400C
:105AC000069808F0C1F9009008F0BEF9019008F0BE
:105AD000BBF9029008F0B8F9059808F0B5F90598F7
