:020000040800F2
:1000000010410020ED0100087D2200082D2200088B
:1000100000000000000000000000000000000000E0
:10002000000000000000000000000000F9010008CE
:100030000000000000000000AB0100084923000898
:10004000FF010008FF01000831230008FF0100083C
:10005000FF010008A1070008B1070008C107000858
:10006000FF010008FF010008FF010008FF01000870
:1000700081070008FF010008C9230008FF010008EC
:10008000FF010008FF010008FF0100080000000058
:10009000FF010008FF010008FF010008FF01000840
:1000A000FF010008FF010008FF010008B12300085C
:1000B000FF01000865220008FF010008FF01000899
:1000C00000F002F800F030F80CA030C8083824180E
:1000D0002D18A246671EAB4654465D46AC4201D180
:1000E00000F022F87E460F3E0FCCB6460126334282
:1000F00000D0FB1AA246AB463343184708850000E0
:10010000288500000023002400250026103A01D392
:1001100078C1FBD8520700D330C100D50B607047BF
:100120001FB51FBD10B510BD00F0DAFA1146FFF77C
:10013000F7FF06F0A1F800F0F2FA03B4FFF7F2FFC0
:1001400003BC00F0F9FA000070B505460C461646EF
:1001500002E00FCC0FC5103E102EFAD2082E02D3AB
:1001600003CC03C5083E042E07D301CC01C5361FBE
:1001700003E021782970641C6D1C761EF9D270BDD5
:10018000194B19680868203080F30988022080F331
:1001900014883FBCAE4662B600BD0000EFF310808D
:1001A00072B6704780F310887047EFF309800E4BEA
:1001B0001A6820381060F0C044464D4656465F46E7
:1001C000F0C008B572B607F001F862B60CBC116851
:1001D00008681030F0C8A046A946B246BB4680F376
:1001E00009882038F0C81847D40000200948804703
:1001F00009480047FEE7FEE7FEE7FEE7FEE7FEE709
:10020000016808467047000004480549054A064B46
:10021000704700005D230008C1000008103D002069
:1002200010410020103F0020103F0020F8B5042AA4
:100230002CD3830712D00B78491C0370401C521E2C
:1002400083070BD00B78491C0370401C521E830798
:1002500004D00B78491C0370401C521E8B079B0F67
:1002600005D0C91ADF002023DE1B08C90AE0FFF70A
:100270006BFFF8BD1D4608C9FD401C46B4402C4329
:1002800010C0121F042AF5D2F308C91A521EF0D466
:100290000B78491C0370401C521EEAD40B78491C91
:1002A0000370401C012AE4D409780170F8BDD2B271
:1002B00010B513029A1813049A1800F00EF810BD26
:1002C00001E004C0091F0429FBD28B0701D502807D
:1002D000801CC90700D00270704700290BD0C307EB
:1002E00002D00270401C491E022904D3830702D5A4
:1002F0000280801C891EE3E70022EEE70022DFE790
:10030000002203098B422CD3030A8B4211D3002312
:100310009C464EE003460B433CD4002243088B42EC
:1003200031D303098B421CD3030A8B4201D3944679
:100330003FE0C3098B4201D3CB01C01A524183096C
:100340008B4201D38B01C01A524143098B4201D326
:100350004B01C01A524103098B4201D30B01C01A51
:100360005241C3088B4201D3CB00C01A52418308CB
:100370008B4201D38B00C01A524143088B4201D3F8
:100380004B00C01A5241411A00D201465241104658
:1003900070475DE0CA0F00D04942031000D34042CD
:1003A000534000229C4603098B422DD3030A8B4203
:1003B00012D3FC22890112BA030A8B420CD38901A1
:1003C00092118B4208D3890192118B4204D3890187
:1003D0003AD0921100E08909C3098B4201D3CB01C5
:1003E000C01A524183098B4201D38B01C01A52417A
:1003F00043098B4201D34B01C01A524103098B427E
:1004000001D30B01C01A5241C3088B4201D3CB0068
:10041000C01A524183088B4201D38B00C01A52414B
:10042000D9D243088B4201D34B00C01A5241411A22
:1004300000D20146634652415B10104601D3404250
:10044000002B00D54942704763465B1000D3404201
:1004500001B50020C046C04602BD704770477047D6
:10046000F0B5FF252D04C609C209FF2704462E401A
:100470000137CB093E4348402A402B400746002A1B
:100480006BD0002B69D0AA4267D0AB4265D0002860
:1004900000DA32460125ED0529432C4309022002EA
:1004A000090AD21A4B0C7F24E31A434C000A7C44FD
:1004B000E35C7D242404121914145B00A218884202
:1004C00001D3521C00E0400049420C465C43241119
:1004D0005C43DB016415E318040A5C43C502200D8C
:1004E0000C4644436419250A5D432303EC0C0D4676
:1004F000654300030019EB184C42A34201D35B187B
:10050000401CD4052018002B07D05B00C91804D369
:10051000401C002901D1400840003F2189048A4243
:1005200009D3002A08DC1106090F04D0032149076A
:100530004018C00FC007F0BD012241001206891803
:100540007F2252069142F6D205214907C84201D5C1
:100550009010F0BDFF20C005F0BD002F00DA32463C
:100560001648AA4207D2AB4205D21902090E17D08B
:10057000F80FC007F0BDFF2563002D06AB42F9D888
:100580004900A942F6D8AB4201D1A942F2D0A94212
:1005900001D1002101E061004908D0050843F0BD08
:1005A0001102090EFBD0FF200243D005F0BD0A4620
:1005B0000146104654E70000CE8000000000C07FD6
:1005C00010B501469E240002CA15A307002A02D0D6
:1005D0001843002A04DBA21A002A0CDDD04010BD0B
:1005E0001206120E01D140004008A21A03D4D040D6
:1005F00040420028F3DDFF2248001206904201D954
:10060000002010BDC817C043584010BD0102C215DC
:1006100004D00123DB071943002A0ADB9E239A1A20
:1006200002D40846D0407047FF2241001206914292
:1006300001D900207047C017C04370471F22030C28
:1006400002D10F2200041CD0030E01D10002083A8F
:10065000030F01D10001121F830F01D18000921EF0
:10066000002801DB4000521ED20551180212511819
:100670001922904004D3491C002801D1490849009F
:1006800008467047C10FC90700D0404201229207B7
:100690001143D3E701218907D0E7000010B5FF22FD
:1006A000C30D134009D05A4007D0914205DA5C428D
:1006B000A14202DDC905081810BDC40FE407002BD4
:1006C00006D0002A06D0002902DBFF20C005044323
:1006D000204610BD4102FCD0004810BD0000C07F84
:1006E000754600F025F8AE46050069465346C00839
:1006F000C000854618B020B5FFF786FD60BC002716
:100700004908B6460026C0C5C0C5C0C5C0C5C0C5DD
:10071000C0C5C0C5C0C5403D49008D46704710B535
:100720000446C046C0462046FFF707FD10BD000046
:1007300000487047B03C002001491820ABBEFEE7DE
:1007400026000200704730B58C180278401C130751
:100750001B0F01D10378401C120906D10278401CFE
:1007600003E00578401C0D70491C5B1EF9D101E0C7
:100770000B70491C521EFBD1A142E6D3002030BDB4
:1007800010B506F0C7FA044800F0B6FA034800F0C6
:10079000ADF806F0CBFA10BD0835002090380020E7
:1007A00010B506F0B7FA04F017F806F0BFFA10BD5E
:1007B00010B506F0AFFA04F011F806F0B7FA10BD64
:1007C00010B506F0A7FA04F04BF906F0AFFA10BD29
:1007D00070B5044600F004FC05461C4E0AE0601C9F
:1007E00008D0002C04D000F0FBFB401BA04201D934
:1007F000032070BDB069C043C007F0D0B069800766
:1008000001D50220B061B069C043C00517D5B069F9
:10081000C043800513D5B069C04340050FD5B0690A
:10082000C04300050BD5B069C043800407D5B0694B
:10083000C043800303D5B069C043C00303D402F0B2
:100840006DFF012070BD002070BD0000002002403F
:10085000F8B5054604464035287D0026012808D015
:1008600001202875206881688907890F01290ED128
:1008700001E00220F8BD0168C90708D0A06D202161
:100880000843A0650126002028753046F8BDA16DFB
:10089000FF220132914302221143A1658168920730
:1008A0001143816000F09CFB07460EE000F098FBCE
:1008B000C01B0A2809D9A06D0221884310210843D2
:1008C000A065002028750120F8BD206880680028F8
:1008D000ECDBA06D80088000401CA065D3E770476A
:1008E0007047806D70470068006C704770B50446B3
:1008F00000680168490702D54168490705D40168C5
:10090000090730D5416809072DD5A16DC90604D462
:10091000A16D012252021143A165C1680C25090590
:10092000890F00291AD1A16A002917D10168090786
:1009300014D5816801224907002908DB4168A943D1
:100940004160A06D110288431043A06506E0A06DD0
:1009500020210843A065E06D1043E0652046FFF7C5
:10096000BEFF206805602068016809060DD5406853
:1009700000060AD5A06D012109040843A0652046A0
:1009800000F0FEF821688020086020680168C90630
:1009900013D54168C90610D5216C1025002902D055
:1009A000C168C90707D0E16D02221143E165056006
:1009B0002046FFF795FF2068056070BD70B5040004
:1009C00006D0A06D254600264035002802D006E05E
:1009D000012070BDE6652E75204600F0D3F8A06DAD
:1009E000C00603D420688168490705D5A06D102191
:1009F0000843A0652E75EBE7A16DFF2201329143FC
:100A000002221143A16581685A4A8907890F012989
:100A100002D10168C9072BD1032361699B07994261
:100A200005D05B42994202D05B00994209D101692D
:100A300089008908016120680169636919430161BE
:100A40000CE0016989008908016190680F2189041F
:100A50008843906090686169084390602068C1682D
:100A600018239943C1602068C168A3691943C16014
:100A7000906801214906884390609068A16C4906FE
:100A80000843906020688168C90004D4816801220D
:100A90001207114381602068C168374A1140C16064
:100AA000206A616A022823D000200143A06AA26B59
:100AB0004003520010430143206C0143606C8003EB
:100AC0000143E06CC00301432068C2681143C16068
:100AD000206B0146FF39C23905D0616B084321689C
:100AE000CA681043C860E06A0121012802D00BE007
:100AF0000420DAE7A06A002823D0A06D202210434A
:100B0000A065E06D0843E0656068012820681FD09B
:100B10000169C90703D001694908490001612068DA
:100B20004169C908C900416120684169E26911430E
:100B30004161E665A06D80088000401CA065002032
:100B400070BD2068C26801231B041A43C260DBE742
:100B500002690A4B1A40026120680269A36825698C
:100B60001A43E3682B431A430261206802690A436F
:100B70000261D4E7002701401902FEFF03FCFF7F5A
:100B80007047000010B50448416B421511434163A2
:100B900004F08AFF10BD000000100240F8B50446C2
:100BA000C06B274640370D4608280BD02068C06828
:100BB000C00709D0A06D20210843A065002038752A
:100BC0000120F8BD082600E00C2600F009FA00908C
:100BD00011E0681C0FD0002D05D000F001FA00993B
:100BE000401AA84207D9A06D04210843A06500203F
:100BF00038750320F8BD206800683042E9D0A06D48
:100C0000012149020843A0652068C1680C2209053A
:100C1000890F00291AD1A16A002917D10168090793
:100C200014D5816801234907002908DB41689143F5
:100C30004160A06D190288431843A06506E0A06DCD
:100C400020210843A065E06D1843E065606C002832
:100C500001D1206802600020F8BD000070B5044694
:100C6000216800208968490721D425464035297D1F
:100C700001291CD001212975E16C012904D02046ED
:100C800001F0AEFB002811D1A16D0A4A1140FF22EC
:100C900001321143A1650021E165297522681C21FB
:100CA000116021688A6804231A438A6070BD02209B
:100CB00070BD0000FEF1FFFF70B5054604464035EB
:100CC000287D012807D001262E75204602F0FCFC65
:100CD000002802D00CE0022070BD204601F026FC66
:100CE000002805D1A16DFF22013291433143A16556
:100CF0000021297570BD0000F8B507460168012084
:100D00000D4A40054600914201D1044600E03446B8
:100D10000A4D844206D16969890203D56861384663
:100D200000F00EF8B44206D16869400203D56E6146
:100D3000384600F005F8F8BD1800014000040140F5
:100D400070470000034841680222114341600020BF
:100D500070470000002002400948416889070CD50F
:100D60004168C90703D00749C1600749C160074905
:100D700001610749016100207047012070470000B0
:100D800000200240EFCDAB8905040302BFAE9D8C6D
:100D900016151413F0B58E4600225EE00123934031
:100DA0009C4671460B4057D0016855000324AC4067
:100DB000A1430160D10889000D182F6A5607F10E72
:100DC0000F268E40B7432F628168A143816041683E
:100DD0006546A9434160C168A143C16094082149A7
:100DE000A4006418A16895072E0F0F25B5402F4663
:100DF0000F4005210907884201D1002119E01A4955
:100E0000884201D1012114E01849884201D1022110
:100E10000FE01749884201D103210AE015498842B1
:100E200001D1042105E01449884201D1052100E0E7
:100E30000621B140B9420FD1A168A943A1600F4971
:100E40000C689C430C604C689C434C608C689C43D1
:100E50008C60CC689C43CC60521C7146D1409DD1C3
:100E6000F0BD0000000001400004005000080050E8
:100E7000000C005000100050001C00500004014005
:100E8000F0B5002296E001249440A44623406ED0A1
:100E90004C68022C01D0122C0CD1D408A4002718C5
:100EA0003D6A5407E40E0F26A640B5430E69A640DE
:100EB0002E433E624C68012C05D0022C03D0112C2D
:100EC00001D0122C11D1856854000326A640B543E9
:100ED000CE68A6402E43866044686546AC430D79D3
:100EE000ED06ED0F95402543456007685400032546
:100EF000A5400E79AF43B607B60FA6403E43066045
:100F0000C668AE438D68A5403543C5604C68E400B3
:100F10004FD52B4C666B01252E4366639508294CF3
:100F2000AD002F19BD689407240F0F26A640B543C6
:100F300005263607B04201D100261AE0224EB04203
:100F400001D1012615E0214EB04201D1022610E068
:100F50001F4EB04201D103260BE01E4EB04201D11C
:100F6000042606E01C4EB04202D1052601E020E036
:100F70000626A6402E43BE60184D2C684E689C4342
:100F8000F60300D51C432C606C684E689C43B60386
:100F900000D51C436C60AC684E689C43F60200D5DB
:100FA0001C43AC60EC684E689C43B60200D51C4301
:100FB000EC60521C0B681C46D44000D063E7F0BDC7
:100FC00000100240000001400004005000080050E2
:100FD000000C005000100050001C005000040140A4
:100FE000014800687047000038010020024801688D
:100FF000491C0160704700003801002010B504460C
:1010000000F09AFA7D21C900FFF77AF9411E0548E0
:1010100041610721016100222146401700F0CCF810
:10102000002010BD00E000E0F8B5002504460028CF
:1010300006D026462036707D0027002802D005E025
:101040000120F8BD3775204600F06CF8022070755D
:1010500020680168490849000160A800216814302F
:101060000F506D1CEDB20F2DF7D920688168042256
:10107000114381606168A068E26A0143A06A10437D
:101080000143E0690143206A0143A0690143606AAA
:10109000014320684268224B1A40114341602046B8
:1010A00001F0C7F8E1682069226B014360691043D1
:1010B000014320680268FE239A43114301602068BF
:1010C0000168012211430160FFF78AFF054608E02D
:1010D000FFF786FF411B7D20C000814201D9082017
:1010E00010E020688068C043C007F1D1FFF778FFA7
:1010F00005460AE0FFF774FF411B7D20C0008142D6
:1011000003D91020A0630320F8BD20688068C04385
:10111000C006EFD4A763012070750020F8BD000061
:101120000F0000FC10B504F047FD0448816B421528
:101130001143816302490120088010BD0010024064
:1011400058010020F8B5044621680820C8602068CE
:101150008168042739438160FFF742FF2546064630
:1011600020350BE0FFF73CFF811B7D20C000814252
:1011700004D9A763002028750320F8BD2068806883
:10118000C0430007EED40120687500202875F8BD23
:10119000C106C90E0120884001490860704700005F
:1011A00080E100E0C106C90E0120884001490860C5
:1011B0007047000000E100E010B501F051FE10BDE5
:1011C0000248016802151143016070470070004039
:1011D00002480168421511430160704700700040E9
:1011E0000248016882151143016070470070004099
:1011F000094B1A689208920002431A600748026974
:1012000004239A430261012903D040BF20BF20BFBD
:10121000704730BF704700000070004000ED00E0F4
:101220000A4B1A689208920002431A600848026941
:1012300004231A430261012906D040BF20BF20BF0A
:10124000016999430161704730BFF9E700700040C0
:1012500000ED00E0F8B504460068614D810601D458
:1012600000056FD55E4940390A680327A0693F052C
:1012700003463A403B409A4205D10B68E2693B4045
:101280003A40934208D08003800F032804D10868B5
:10129000800301D50120F8BD51484038816B02041C
:1012A000114381634F480168821511430160FFF7C4
:1012B00097FE064604E0FFF793FE801B64282AD8B9
:1012C00048480068C005F6D5286903210904A269C9
:1012D00008400A40904205D12869E26908400A4066
:1012E00090422FD0286903210904884329690122EB
:1012F000D20411432961296991432961286180053C
:101300000ED5FFF76DFE064607E0FFF769FE811B6D
:101310003548814201D90320F8BD28698005F4D5FC
:10132000A0698103890F032952D02D4840380168F4
:10133000B9430160296903200004A2698143024086
:10134000114329612078C00705D0E86861688008EA
:1013500080000843E8602078800705D5E8680C2104
:101360008843A1680843E8602078400706D5E8680C
:10137000032189028843E1680843E8602078000778
:1013800006D5E86803210903884321690843E8601A
:101390002088C00506D5E8680321090488436169EF
:1013A0000843E8602078400606D5E86801218906F0
:1013B0008843216A0843E8602078000606D5E8687B
:1013C000032189048843616A0843E8600020F8BD6E
:1013D000034A403A11683840B94301431160A9E714
:1013E000401002400070004088130000F8B5044629
:1013F0004E480E460068C007C00FB0420AD24B48A4
:10140000016849084900314301600068C007C00F06
:10141000B0426FD12078464F800705D5F868F0219B
:101420008843A1680843F8602078C00752D06068FC
:10143000022817D0002818D03968032818D0490787
:10144000002957DAF968890889000143F960FFF734
:10145000C7FD05466068022812D003281CD000286A
:1014600026D032E039688903EAE739688905E7E779
:101470008901E5E7FFF7B4FD411B2E48814222D8E0
:10148000F8680007800F0228F4D123E0FFF7A8FDD9
:10149000411B2848814216D8F8680007800F0328AE
:1014A000F4D117E0FFF79CFD411B224881420AD886
:1014B000F8680007800FF5D10CE0FFF791FD411BA4
:1014C0001C48814201D90320F8BDF8680007800F4D
:1014D0000128F2D115480168C907C90FB1420BD3E1
:1014E000016849084900314301600068C007C00F26
:1014F000B04201D00120F8BD2078400706D5F86839
:10150000072109028843E1680843F8602078000752
:1015100007D5F8680721C90288432169C900084333
:10152000F8600020FFF76AFD0020F8BD00200240AF
:10153000001002408813000010B500F011F80549B2
:10154000C968054A0906090F515CC840034908608B
:1015500010BD000000100240458200083401002048
:1015600010B51A4B5868D9680004420F0C2001408E
:10157000174805D0042906D008290BD00C290BD018
:10158000521C904010BD1868C00601D5114810BD0E
:10159000114810BD114810BDD868D9688002104AA2
:1015A000000F105C0902DA68890F01242404491C29
:1015B000224204D11A68D20603D5064A02E0074A3D
:1015C00000E0054A5043FEF79BFE10BD00100240AC
:1015D0000080000000093D000024F40000127A00A1
:1015E0003C820008FEB504460078F94EC0074CD096
:1015F000F0680007800F022807D0F0680007800F0E
:10160000032809D1F068C00306D5306880033CD5B3
:101610006068002874D038E00121606809048842BD
:1016200002D13068084313E0052301221B04920411
:101630009842306805D1884330603068104330608C
:10164000EFE788433060306808400090306890438E
:101650003060606800280CD0FFF7C2FC054604E04B
:10166000FFF7BEFC401B64287CD830688003F7D5A8
:101670000BE0FFF7B5FC054604E0FFF7B1FC401BAB
:101680006428F1D830688003F7D42078800740D5EB
:10169000F0681F270007800F3F02012807D0F0687D
:1016A0000007800F032809D1F068C00306D4306812
:1016B000400717D5E068012822D113E0E06809212E
:1016C000002816D032688A4302433260FFF788FC54
:1016D000054604E0FFF784FC401B0228C4D83068AC
:1016E0004007F7D570682169B84309020843706064
:1016F0000FE0306888433060FFF772FC054605E074
:1017000091E0FFF76DFC401B0228ADD83068400720
:10171000F7D42078C00649D5F068AE4F0007800F97
:101720000AD0E06900283068AB4931D00843306006
:10173000FFF756FC05461BE03068800502D5E069DE
:10174000002870D07068616AB843084370607068A0
:10175000218C0002000A0906084370600020FFF790
:101760004DFC23E0D7E0FFF73BFC401B022888D864
:1017700030688005F7D57068616AB84308437060C7
:101780007068218C0002000A0906084370600DE0B1
:1017900088433060FFF724FC054604E0FFF720FC97
:1017A000401B02289AD830688005F7D420788B4DEA
:1017B000000722D56069002828690FD0012108435D
:1017C0002861FFF70DFC074604E0FFF709FCC01B8A
:1017D00002289AD828698007F7D50EE04008400013
:1017E0002861FFF7FDFB074604E0FFF7F9FBC01B8C
:1017F00002288AD828698007F7D42078800630D557
:10180000A16977480029B16817D001221143B1605E
:10181000716B11437163016A724A11430162FFF7F0
:10182000DFFB074605E0E8E0FFF7DAFBC01B022814
:1018300071D8B0688007F7D513E049084900B16056
:10184000016A684AD24311400162FFF7C9FB0746AB
:1018500004E0FFF7C5FBC01B02285CD8B068800716
:10186000F7D42078400770D5002002900190B06B2B
:10187000C00006D4B06B012109070843B063012002
:10188000029059480068C00513D457480168821572
:101890001143016001200190FFF7A2FB074604E01D
:1018A000FFF79EFBC01B642835D84F480068C00571
:1018B000F6D5494FA068B84202D1286938430CE0F8
:1018C00001218902002803D00522120290420CD087
:1018D0002869B8432861286988432861A0680028DE
:1018E00015D0FFF77DFB00900DE02869B843286113
:1018F000286908432861E0E7FFF772FB0099411A65
:101900003A48814262D828698005F5D50EE0FFF794
:1019100067FB009007E059E0FFF762FB0099411A6E
:101920003248814252D828698005F5D401980028B0
:1019300003D02D480168B94301600298002804D003
:10194000B16B012000078143B163A06A002852D027
:10195000F1680907890F03294FD001273F060228A4
:10196000306805D0B8433060FFF73AFB04463FE0EB
:10197000B8433060FFF734FB054604E0FFF730FB67
:10198000401B022822D830688001F7D4616B206B9D
:10199000F2680843E16AFD231B049A43114308439C
:1019A000F060306838433060FFF71AFB044604E00B
:1019B000FFF716FB001B022808D830688001F7D516
:1019C00019E0FFF70DFB001B022811D90320FEBD13
:1019D0000010024000E00000000100004010024042
:1019E000000001400120000000700040881300004A
:1019F00030688001E5D40020E9E70120E7E710B571
:101A0000040010D0206801680C2291430160206816
:101A10004168602291434160204600F059F800205F
:101A20006071207110BD012010BDF3B5044600792E
:101A3000002681B0012809D001272771607901288B
:101A400006D00126002020713046FEBD0220FEBDDA
:101A500002206071FFF7C4FA05460CE0FFF7C0FAF8
:101A6000411B7D20C000814205D904206071002007
:101A700020710320FEBD20684068C043C007EDD13F
:101A800020688068A060029908606771DAE770B525
:101A9000040009D02079012808D00125257160793A
:101AA0000026002804D007E0012070BD022070BD90
:101AB0002671204600F03EF802206071206801681F
:101AC00004221143016065712671002070BD000081
:101AD00030B5174C99B0206B01252D0528432063A4
:101AE00038216846FEF70AFC28210EA8FEF706FCFE
:101AF0002020009000200A9006906846FFF772FDB3
:101B0000002800D0FEE740200E90000516900EA899
:101B1000FFF7A0FB002800D0FEE7206BA84320635E
:101B2000206A28432062206AA843206219B030BD91
:101B30000010024000B599B038216846FEF7DEFB80
:101B400028210EA8FEF7DAFB2020009000200A9042
:101B5000012006906846FFF745FD002800D0FEE70B
:101B600040200E90000516900EA8FFF773FB00288A
:101B700000D0FEE70348016B012212051143016307
:101B800019B000BD00100240F8B5054604462035E6
:101B90002878012819D00120287002206870216857
:101BA000CA20486221685320486220688168012267
:101BB00092029143816020688168120191438160A3
:101BC000FFF70EFA064600270FE00220F8BDFFF7E8
:101BD00007FA811B7D20C000814206D92168FF20C1
:101BE0004862032068702F70F8BD2068C068400705
:101BF000EDD52168FF204862012068702F70002019
:101C0000F8BD0000F7B505460446203528780128C0
:101C100013D001202870022068702168CA20486211
:101C2000216853204862206880680027400500280A
:101C300010DAFFF7D5F9064608E00220FEBDFFF7EF
:101C4000CFF9811B7D20C000814214D82068C06874
:101C50004007F4D420688268012189028A438260A7
:101C6000FFF7BEF906460DE0FFF7BAF9811B7D20AC
:101C7000C000814206D92168FF20486203206870B5
:101C80002F70FEBD2068C0684007EDD5216801981F
:101C9000486120688168C908C9008160206881683E
:101CA000029A114381600D48016801221205114317
:101CB000016081681143816020688168921111433D
:101CC0008160206881681211114381602168FF20C2
:101CD0004862012068702F700020FEBD00040140A2
:101CE00010B50F4801680422114301600D480188B6
:101CF000491C01800C490A68521C0A600B490A6899
:101D0000521C0A600088782801D304F0DBFA0848E6
:101D10000068002802D0082104F0D0FB10BD0000AC
:101D2000007000403C010020300000203400002002
:101D30002800002010B504460068C068400509D599
:101D40002046FFF7CDFF2068C16880221140054A78
:101D50008918C16001200449000548610120203430
:101D6000607010BD7FFBFFFF0004014070B50400F0
:101D700005D0254620356878002802D006E00120ED
:101D800070BD00202870204600F042F802206870E4
:101D90002168CA204862216853204862204600F02A
:101DA000AAFAFF210028206803D04162042068704D
:101DB000E5E78268154B1A40826020688268636894
:101DC000A6691A43236933431A4382602268E06894
:101DD00010612068026923891B041A43026120688C
:101DE000C26880239A43C2602068C26C9208920045
:101DF000C264E269606902432068C36C1A43C2642A
:101E00002068416201206870002070BDBFFF8FFF15
:101E100000B5184899B0816B020411438163FFF744
:101E2000DFF90C2000900020FF210A90013105907D
:101E300002916846FFF7D6FB002808D120200E90BB
:101E4000C00214900EA8FFF705FA002801D001F097
:101E500043FD0848403001690122920411430161A9
:101E6000002211460220FFF7A7F90220FFF79AF996
:101E700019B000BD00100240F8B5054604462035F3
:101E800028780B46012822D0012028700220687093
:101E90005878002A1DD000F01BFA987800F018FA44
:101EA000D8789E78000406435878197800024903D0
:101EB000084306432168CA204862216853204862CB
:101EC000204600F018FA002700282AD117E0022047
:101ED000F8BDC10603D5EF2108400A305870D87804
:101EE00000F0FEF90604587800F0FAF90002064303
:101EF000987800F0F5F9064318784003D9E71148BF
:101F00000640206846602068C16880229143C16015
:101F10002068806880060CD4204600F08DF80028E8
:101F200007D02168FF204862042068702F700120CC
:101F3000F8BD2168FF204862012068702F700020E2
:101F4000F8BD00003FFFFF00F8B506460446203606
:101F500030780D4601280ED00120307002207070BC
:101F6000206800278068002A07D040061AD5287804
:101F700000F0AEF917E00220F8BD400600D4EF7083
:101F8000287800F0ADF90204687800F0A9F90002A1
:101F90000243A87800F0A4F90243E8780004024361
:101FA00000920BE0EF702978A8780904084369785B
:101FB000EA78090212041143084300902168CA20FC
:101FC0004862216853204862204600F094F90028B6
:101FD0001FD118490098084021680860206881686E
:101FE0000122920491438160E968286901432068D5
:101FF0008268114381602068C16880229143C1607A
:102000002068806880060CD4204600F015F800286F
:1020100007D02168FF2048620420707037700120CB
:10202000F8BD2168FF2048620120707037700020E1
:10203000F8BD00007F7F7F0070B505460068C1686D
:10204000A0229143C160FEF7CBFF7D260446F60037
:1020500006E0FEF7C5FF001BB04201D9032070BDAA
:102060002868C0688006F4D5002070BD704770B540
:10207000040017D00220264660367072206801687E
:102080004908490001602068002505602068456016
:1020900020688560204600F087F8E5667572357225
:1020A000002070BD012070BD10B500680549884250
:1020B00002D102F071FF10BD03498842FBD102F04A
:1020C000BBFF10BD004800400038014070B5044619
:1020D0000068C1692546C90701266035002907D077
:1020E0000168C90504D50662E06E3043E0666E7291
:1020F0002068C16904228B070221002B07DA83685C
:10210000DB0704D00162E06E1043E0666E72206867
:10211000C3695B0707D58368DB0704D00262E06E02
:102120000843E0666E722068C169090708D58168B6
:10213000C90705D008210162E06E0843E0666E72AF
:10214000E06E002802D02046FFF7AEFF2068C1698C
:10215000C90209D58168490206D501210905016234
:102160006E722046FFF782FF2068C169890605D597
:102170000068800602D5204600F028FD2068C1696D
:10218000090605D50068000602D5204600F08AFE43
:102190002068C169490605D50068400602D5204679
:1021A00001F07EFC70BD000008B51B4A01681B48A9
:1021B000914217D1826B012189040A438263C36A69
:1021C00004221343C362C36A13400093826A0A4322
:1021D0008262826A8A43826230211148FEF7DAFD08
:1021E0001D2016E0426B012189030A434263C36A42
:1021F00002221343C362C36A13400093426A0A4334
:102200004262426A8A434262C0210648FEF7C2FD2A
:102210001B20FEF7BDFF08BD004800400010024033
:10222000000800500004005000BF704704F04AF856
:10223000FEE770B50546FEF7D3FE7D260446F600A0
:1022400008E0FEF7CDFE001BB04203D90120A863D1
:10225000032070BD28688068C0438006F1D4002048
:1022600070BD000010B504F055FD0348FFF72EFFC8
:1022700004F05CFD10BD00006835002000BF00BF09
:1022800004F020F8FEE7000008B500210F48C9431C
:10229000C162C16A01221143C162C16A1140009149
:1022A000C26A02210A43C262C26A0A400092C26A3A
:1022B00004210A43C262C26A0A400092C26A08212B
:1022C0000A43C262C06A0840009008BD0010024084
:1022D00001090A2200075143000F4018C0B270479D
:1022E000002102E00A38C0B2491C0A28FAD20907C4
:1022F000090E0843704770B505460068C168490675
:1023000013D40021C943C160FEF76AFE7D2604464E
:10231000F60006E0FEF764FE001BB04201D9032080
:1023200070BD2868C0684006F4D5002070BD00006C
:1023300010B504F0EFFC0348FFF7FCFC04F0F6FCDA
:1023400010BD00004435002010B5FEF74FFE03F02D
:1023500025FE03F07FFF04F008F910BD1048016866
:10236000821511430160C1680E4A1140C1600168C5
:102370000D4A114001608168490849008160016887
:102380000122920491430160C168FD22120491432D
:10239000C160002101610549C003886070470000E9
:1023A000001002400C40FF88F6FFF6FE00ED00E052
:1023B00010B504F0AFFC0348FFF788FE04F0B6FC4C
:1023C00010BD0000D835002010B504F0A3FC034870
:1023D000FFF77CFE04F0AAFC10BD00006835002069
:1023E000F8B50446006881688907890F012902D180
:1023F0000168C90722D18168114A102611400125C0
:1024000000290ED1816829438160012001F03EFC42
:10241000FEF7E6FD07460CE0FEF7E2FDC01B0A28CA
:1024200007D9A06D3043A065E06D2843E065012029
:10243000F8BD20680068C043C007EDD10020F8BD9A
:102440001700008030B50023040AE409CD09E40137
:10245000ED01AC4203D04004000C504001E04004C8
:10246000000C49065B1C090E9BB2082BECD330BD57
:102470000EB501F011FF04F0F3FE01F045FF04F08A
:1024800065FB03F069FD03F00DFE012003F012FE71
:1024900003F0ACFE03F07CFE03F08EFE1F480078D4
:1024A0001F4F38780022D2430F21684604F02EF8DF
:1024B000019C200711D51B4801680F2901D20F216B
:1024C0000160164801783D780026067006203870B5
:1024D00002F056FF3D70144806706007E2D51148BF
:1024E00001680F2901D20F2101600C4C25783E783C
:1024F000002020700520387004F03AFB02F014FF31
:102500007D20000103F0ECFE20780028CAD1387845
:102510000528C7D125703E70C4E700005200002096
:10252000530000202400002084010020F8B5044658
:10253000006881688907890F012925D10168C907C9
:1025400022D08168052211401025012601290FD1D2
:102550008168022211438160216803200860FEF730
:102560003FFD07460CE0FEF73BFDC01B0A2807D9DC
:10257000A06D2843A065E06D3043E0650120F8BD03
:1025800020688068C007EED10020F8BD03210E4806
:102590000903420705D0C01DC0080B4AC000821ABB
:1025A000891A0A4B0022411805C30839C908C90015
:1025B000183B19604A600A600A1A06C09A60012036
:1025C000C0075A60D8607047080500202C01002021
:1025D000104D114C114E02F0B1FC2868012801D9B0
:1025E00004F0CEFC01F0B2FD0228F4D304F0E6FDC5
:1025F000A06AE168884203D2314609A004F04CFB8E
:1026000001F0A4FD022801D304F0EEFB05F00AFD61
:10261000E1E7000018040020D4000020AB0A00000D
:102620002E2E5C6F732D6B65726E656C5C6B6572C4
:102630006E656C5C7461736B732E630010B51F481C
:1026400003F07CFC1E48C17A012900D102211C48FC
:10265000C030406DC207D20F8A4201D300290BD18E
:1026600003075B0F032B07D2C30605D4830603D4ED
:10267000430601D403061DD58A4203D3002901D0A5
:1026800010A004E00107490F032903D30FA003F0B2
:102690002FFC10BDC10601D50EA0F8E7810601D5BB
:1026A0000EA0F4E7010601D50EA0F0E74006F0D534
:1026B0000EA0ECE701F066F910BD00000000FFFF7E
:1026C000303900206E662D6C6F63200073742D6CA2
:1026D0006F63200073652D6C6F6320006E632D6C3B
:1026E0006F63200073682D6C6F6320006E672D6C24
:1026F0006F632000FFB581B014460F4606460A2AD4
:1027000034D80025386835550DE00A21FDF7F8FD6D
:10271000174A6D1C525C31192039641ECA77ADB25C
:10272000E4B2002801D0002CEFD1302004998D4272
:1027300008D8311920396D1C641E2406C877ADB243
:10274000240EF3D17879002807D0002C0ED0301950
:102750002D212038641EC177E4B22020002C05D042
:1027600031192039641EC877E4B2F7E705B0F0BD2F
:10277000E08100080EB50027009702F0CDFF03F0BE
:1027800065FA03F00FF902F0A9FE01F06FFD03F006
:10279000AFFD254E254D009003F0AAFD0099401A8B
:1027A000009000BF0022D243D10D684603F0AEFE78
:1027B000019C03F09DFD0090E00702D0F76201F05C
:1027C00011FC20070CD501F0ABFB03F027F900F05A
:1027D00067FD01F0B7F902F03DFA03F0C3FC00BF5A
:1027E000A00703D50F20706100F05AFD600601D5E7
:1027F00001F0A8F960070ED502F00EFD00F092F886
:102800002878002807D10A48006D0002400F0628EA
:1028100001D101202870E00601D501F0A5FAA0063B
:10282000BAD502F063FDB7E7100000208401002054
:10283000F0390020F0B5204C034603250020AD06FA
:10284000226D616D032B16D02546696D4026B1437C
:1028500003262D6D0127B6067F07B543022B14D042
:102860007A10012B61651BD095432565626D40216F
:102870008A436265F0BD2A434020014322656165B9
:1028800002F032FC0028F1D0F0BD61659100EDD47A
:102890000120C00628183843206502F037FCE5E720
:1028A000012189066918B9432165CB00DED41143A3
:1028B000216502F03DFCD9E7F039002010B503F0A6
:1028C00043F912480069400717D472B610480168EE
:1028D000491C016062B601200E4908700E48006A6A
:1028E00003F0C4F800BF0D480721027849050C48E1
:1028F000022A026D04D08A43026503F02DF910BD4F
:102900008A430121490551180165F6E70008005086
:1029100074010020780100201000002085010020B3
:10292000F039002010B50948006D0001810F03D077
:10293000800F012801D004D810BD05480068800729
:10294000FAD10A2000F02FF810BD0000F039002065
:102950007001002009480A4A41791170094A017939
:102960001170094AC1781170084A81781170084ABB
:102970004178117007490078087070473E010020C7
:102980005000002051000020110000201200002003
:102990001300002014000020EFF30580002800D071
:1029A00001207047FEE710B5044602F021FF02F057
:1029B0004BFF204603F094FC02F03CFF10BD0000EA
:1029C00070B51A4A062081008B18803B401EDB6FD1
:1029D00000045350000CF6D115480368154D1360E0
:1029E000A888401C80B2A88006281DD30020A8809B
:1029F0000E4C0A201C3481000E19803E401EF66FDA
:102A000000046650000CF6D19069181A00D5002019
:102A1000FDF738FE084905F069FB0849FDF720FD80
:102A2000A861FDF7CDFD206070BD0000A801002069
:102A30005C0100206C000020000070420000C040DB
:102A400070B5044604F066F9254624350CE0606A4A
:102A500000280CD0284605F09FFA002801D004F089
:102A6000CBFAA06C401EA064A06C0028EFDC00250F
:102A7000ED43A56404F05AF904F04CF926461036EB
:102A80000CE0206900280CD0304605F085FA0028BB
:102A900001D004F0B1FA606C401E6064606C0028E4
:102AA000EFDC656404F042F970BD00001CB51D4CFC
:102AB000A079002834D0216B606A884230D302F0BC
:102AC00015FC02F029FD08221749684603F08BFA2D
:102AD0001648174A817E632901D9992100E0515C8B
:102AE0006B46D970C07E632801D9992000E0105C44
:102AF00098701879992801D9632001E00D49085C84
:102B0000401CC0B20C2801D9012003E0632801D980
:102B1000992000E0105C1871184603F08FFF2063C5
:102B20001CBD0000100000203E010020503A002093
:102B300078830008D882000810B50B48007C632811
:102B400010D30A49486A496B88420BD30648E030E3
:102B5000007D052802D202F0CDF901E002F05AF919
:102B600001F0E2FC10BD00007039002010000020D0
:102B70000EB50020094C451E00902A4601216846EA
:102B800003F0C4FC0198C007F7D0FFF797FEA069D7
:102B90000028F2D0042103F091FCEEE710000020A1
:102BA00010B5084800240078022808D101F000FF81
:102BB000040004D004481021806903F07FFC204603
:102BC00010BD0000850100201000002000B5064A5D
:102BD0000168914202D102F0F9F900BD034A914225
:102BE000FBD102F00DFA00BD004800400038014062
:102BF000F0B5040001D0002020701448134D407A35
:102C0000C03503280ED0686B6D6B854206D0002C52
:102C100001D001252570002A00D01370002900D0B2
:102C20000860F0BD094E0023403E980080198030B6
:102C3000476C07480068874203DC5B1C9BB2052B8E
:102C4000F3D3980080198030C06DDDE73039002063
:102C50006001002070B500250F4E1F225000811921
:102C60004039521EC98F12043152120CF6D10A4B50
:102C700000201821403354001C5F2018AC4200DDB6
:102C80002546521C92B28A42F5DBFDF743FB3080A9
:102C90000248458070BD0000700200206C000020DA
:102CA00010B50F48007C63280ED30D490D4CE03160
:102CB000097D606A052908D20020A06303F0D6FED2
:102CC000002801D003F02EFF10BDA16B8842FBD37A
:102CD00001F0C0FDA0790028F6D003F0D3FE10BDAE
:102CE000703900201000002010B5094803F026F9C3
:102CF0000849002008720849064803F039FA0548D7
:102D000003F0F6F80021062003F0E0F810BD000003
:102D10000000FFFF980100200439002010B505A134
:102D2000064803F056F9064803F008F9034803F093
:102D3000DFF810BD69722D2D2D2D000098010020A7
:102D40000000FFFF10B51B48048F1B4803F0F6F886
:102D50003C2C22D008DC0A2C11D0102C11D0192CBC
:102D600011D0282C09D116E0642C18D0A02C18D032
:102D7000FA2C18D0FF3C912C17D010A016E012A00E
:102D800002E014A000E016A003F0B2F80821002031
:102D900003F09CF810BD15A008E017A006E019A0EC
:102DA00004E01BA002E01DA000E01FA003F0A0F8BB
:102DB00010BD0000F03800200000FFFF2020716EE1
:102DC0003A65727200000000202020716E3A3130A6
:102DD00000000000202020716E3A31360000000013
:102DE000202020716E3A3235000000002020207132
:102DF0006E3A342000000000202020716E3A362008
:102E0000000000002020716E3A31302000000000E8
:102E10002020716E3A313620000000002020716EB3
:102E20003A323520000000002020716E3A34302004
:102E3000000000000EB50025084CED432A46684608
:102E4000216803F067FA00981028F7D100F0A2FC7F
:102E500001462A46606803F0A5FAEFE78C010020DE
:102E60008307FF22DB0E9A408907090E994000284C
:102E70000BDA0007000F0838830808489B00181871
:102E8000C36993430B43C3617047830804489B00A5
:102E90001818036893430B430360704700ED00E08C
:102EA00000E400E0014660314A7A122A04D0497AEF
:102EB000322901D002207047014640314A8A002A57
:102EC00012D0012382681B039A4202D10269002AB0
:102ED00015D0C26C531CC364006812788262488AA1
:102EE000401E48820020704701680A6880239A4388
:102EF0000A6000680168402211430160F2E7C26C79
:102F000003681288D205D20D9A62C26C921CC26408
:102F1000E5E7000010B50D4C172148000219403AB2
:102F2000491ED28F09042252090CF6D1074A00200B
:102F3000EC3A8B00D358491C181889B20A29F8D3E7
:102F40000A21FDF7E7F9208010BD0000B002002043
:102F50002249002048802248FF23008FFA22E133D3
:102F6000642823D008DC102810D019280BD028287A
:102F700011D03C2807D114E0A0281DD0FA2820D079
:102F8000FF38912822D00A614B617047A020086168
:102F9000FF202D301FE0FF20913008612D2000011F
:102FA00019E04B20C0000861400014E07D20C00003
:102FB00008610F20C0010EE0192080010861094856
:102FC00009E0094808614B20800104E07D204001B0
:102FD0000861E12040014861704700006C0000205A
:102FE000F0380020B80B0000C409000010B50D48EF
:102FF0000B4901600021012292050163426081605A
:10300000016110224162C260416112028261C161AC
:10301000702281620262C162FEF706F810BD0000F4
:10302000002400405438002004480068401C03D0AD
:10303000CA2103A003F030FE72B6FEE70C010020A7
:103040007372635C6273705C6F732D706F72745C0B
:10305000706F72742E63000070B510220021144846
:1030600002F0CBFF134B14495A7910090C5C10483D
:1030700012070470120F8A5C42702D2484701A7932
:1030800015094D5D1207C570120F8A5C02714471FB
:10309000DA781309CB5C12078371120F895CC17156
:1030A000064802F04BFF024802F022FF70BD00000C
:1030B000980100203E010020E08100080000FFFF91
:1030C00070B510220021184802F097FF174B1849DD
:1030D0009A7810090C5C144812070470120F8A5C6D
:1030E00042702024847000BF5A7815094D5D120784
:1030F000C570120F8A5C027144711A781309CB5C97
:1031000012078371120F895CC1710A4802F016FF21
:10311000054802F0EDFE0321002002F0D7FE062153
:10312000002002F0D3FE70BD980100203E01002077
:10313000E08100080000FFFF70B51B480026007802
:103140001A4C4007C50F002D1AD008D0184908782E
:10315000002824D00622204602F045FFA67115481B
:1031600002F0ECFE114802F0C3FE002D07D107214A
:10317000002002F0ABFE0421002002F0A7FE70BD8B
:10318000622020706E216170A0703221E1703120C8
:1031900020716171A0713020E0712672DFE706A115
:1031A000024802F016FFDAE73800002098010020FC
:1031B000B80000200000FFFF2020756E726561647A
:1031C0000000000070B51A4C03239B064025226DB9
:1031D000616D032813D02346596D4026B143032661
:1031E0001B6DB606B343022812D00128616516D0C4
:1031F000A80583432365606DA843606570BD1A43CD
:1032000029432265616501F06FFF0028F3D070BD8E
:1032100061659000EFD40120C006181805E0012078
:10322000800618180121490788432065E3E700005C
:10323000F0390020FFB50D46044681B00027114645
:103240000A2002F0BDFE461E002028602871687129
:10325000002C18DA0120E44368710A213046641C0E
:10326000FDF74EF806460EE028790A21401CC0B250
:10327000287100902046FDF743F80F460446049954
:103280000098884201D2B442EED8052F00D3641CC6
:10329000B44200D934462C60002005B0F0BD0000D7
:1032A000F8B502F0E9FC2F4DE86A04273843E862DC
:1032B000E86A384000902C4800692C4E00072C4CDE
:1032C000002810DA216D10208143216502F0DCFC1A
:1032D000707A002806D00020707270690F2801D221
:1032E0000F207061F8BD642002F0FAFFE86A3843ED
:1032F000E862E86A384000901B48006900072CD457
:10330000206D10210843206519488038007C622810
:10331000606D11D30107490F032911D215490978AE
:1033200004290DD1C841C90640181C21C841606557
:10333000642002F0D5FF03E00E218843801C606505
:103340000B2003F0A9FF707A002806D101207072CB
:1033500070690F2801D20F20706100BF02F094FC49
:10336000F8BD0000001002400008005010000020CE
:10337000F03900208501002070B51B48102200683C
:1033800000218408194802F038FE194E31780029CE
:1033900017D003212046FCF7B3FF144C2D2500293C
:1033A00014D0012918D0314607220D31601C02F0DB
:1033B0001AFE25700F4802F0C1FD0C4802F098FD7E
:1033C00070BD0DA1094802F004FEF3E70722084989
:1033D000064802F008FE05E00622F11D601C02F01E
:1033E00002FE2570E571E5E7380000209801002015
:1033F000000300200000FFFF2020756E72656164ED
:103400000000000010B50C4802F098FD0B48007C4D
:103410006138030001F0D0FE050406080A0C0F0015
:1034200007A006E008A004E009A002E00AA000E06E
:103430000BA002F05DFD10BD0000FFFF7039002001
:10344000202020733A610000202020733A6200009F
:10345000202020733A630000202020733A6400008B
:10346000202020733A65000010B5154802F066FD73
:1034700014480068002802D000F004F910BD12487A
:103480004078030001F098FE0706090C0F1215188A
:103490000500F3E700F08AFF10BD01F059FB10BDF5
:1034A00001F07CFB10BD01F05DFA10BD01F034FAB3
:1034B00010BD01F089FC10BD01F0A6FB10BD00009D
:1034C0000000FFFF3C0000205200002010B514480F
:1034D0001022006800218408124802F08EFD124874
:1034E0000078002807D0E0070AD008220E490D48CE
:1034F00002F079FD0DE00DA10A4802F06AFD08E036
:103500000949084C07220831601C02F06CFD2D208F
:103510002070094802F012FD024802F0E9FC10BDDB
:103520003800002098010020F00200202020756E55
:1035300072656164000000000000FFFF70B526485E
:1035400000788007C60F254802F0F8FC0025244CBF
:10355000002E0FD023480078002837D06620207036
:1035600007222049601C02F03EFD25721C4802F033
:10357000BFFC70BD1C4900200856002801DD00205A
:10358000C043404246B210220021154802F035FDEA
:10359000632E0DDD052215A1114802F024FD6421E2
:1035A0003046FCF7B7FE3030607108460A2106E06D
:1035B000062210A10A4802F016FD0A213046FCF747
:1035C000A9FE3030A0713031E171CEE70BA1044883
:1035D00002F0FFFCCAE70000380000200000FFFFF7
:1035E00098010020C00000208601002020636F3A6F
:1035F0002D00000020636F3A202D000020756E72B0
:10360000656164200000000010B50D4802F096FCD2
:103610000C480D49006C096840180C49FCF77AFE0B
:103620000B490968081A022100F0A2FE01210020BE
:1036300002F04CFC0B21062002F048FC10BD0000FB
:103640000000FFFFF039002080010020102700005B
:103650006801002010B509480468094802F06EFCB2
:103660000221204600F084FE0121002002F02EFC01
:103670000B21052002F02AFC10BD00006C01002087
:103680000000FFFF10B50D4802F058FC0C48007C0C
:10369000632802D30B48006802E009488030C06B01
:1036A000E1070AD0022100F063FE0021042002F0AD
:1036B0000DFC0B21062002F009FC10BD0000FFFFED
:1036C000703900208801002070B5044600688168C8
:1036D000490720D5816810254907002905DA816846
:1036E000890702D4816829438160FDF779FC064689
:1036F0000DE0FDF775FC801B0A2808D9A06D284352
:10370000A065E06D01210843E065084670BD2068B2
:1037100080684007EDD4002070BD00001A49886918
:10372000C2051A4803D5426908231A4342618A69CF
:10373000920503D5426904231A4342618A695205FE
:1037400003D5426902231A4342618A69120503D5EF
:10375000426910231A4342618A69920403D542697F
:1037600001231A4342618A69920303D542692023E7
:103770001A4342618A69D20303D5426940231A433E
:103780004261034888617047002002402C350020C8
:10379000002F030070B52C482C490068884201D8DE
:1037A000002070BD2A4D0021C943286802F052FE56
:1037B00001F010FD27480068274C60642046C0389F
:1037C000407A03282DD025480068E063FF217F312F
:1037D000234801F027FEFF26813632462049214842
:1037E00002F001FC204C32461D49204603F0A8F8A7
:1037F000324621461A4802F0EDFF3146184801F0E2
:1038000031FE04B2002C19D072B618480168184A6B
:103810001268891A016062B6286802F0F5FD204638
:1038200070BD1449206C096840181349FCF772FDFB
:10383000124A12682164101AE063C7E73246094948
:10384000074802F0D0FBE7E7080000206C07000003
:103850000C0000205C010020F03900206C010020E9
:10386000F0380020703A00200000080874010020A1
:103870007001002080010020102700006801002056
:1038800010B594B014210EA8FCF738FD3821684615
:10389000FCF734FD02200121039100900A900024DE
:1038A000400510210D900C9404910B946846FDF78F
:1038B00099FE00280CD10F200E9003200F90109439
:1038C0001194012112940EA8FDF790FD002801D05B
:1038D00001F018FA14B010BD02F0F4FC00BFFDE7CF
:1038E00070B51646026C00250446002A11D0002E41
:1038F00019D0E068FCF79AFCE168206C091AE160D5
:103900002268914202D26168081AE060022E17D044
:103910001CE02068002819D1606804F0F3FA05461D
:103920000020606012E0A068FCF780FC216CA068B9
:103930004018A0606168884208D32068A06005E054
:10394000A06B002802D0A06B401EA063A06B401C9F
:10395000A063284670BD000010B5084802F0EEFADA
:1039600007480421406B00F003FD0021012002F014
:10397000ADFA0B21062002F0A9FA10BD0000FFFFEE
:10398000F03900200EB52148407B030001F014FC03
:10399000163C0C0E10121416181A1C3C1E2C2E303D
:1039A000323C3C34363C383C19A02AE01AA028E0CE
:1039B0001BA026E01CA024E01DA022E01EA020E009
:1039C0001FA01EE020A01CE021A01AE022A1684652
:1039D00002F0CEFB0D4869464038406D0007400FAD
:1039E0003030087068460CE01DA00AE01EA008E018
:1039F0001FA006E020A004E021A002E022A000E039
:103A000023A002F075FA0EBD23A0FAE7303A002099
:103A100065722D4F666600006C622D4F6666000071
:103A200068622D4F666600006E662D4F6666000068
:103A300073662D4F6666000068662D4F666600004F
:103A400063662D4F666600006C672D4F666600004A
:103A50006E672D4F666600002073742D4F666600FA
:103A600065742D4F6666000073652D4F6666000015
:103A70007473744F666600004761732D616C61005A
:103A80006E632D4F6666000070722D4F66660000F3
:103A900073682D4F666600002070726573730000B6
:103AA00010B501680A6840239A430A6001466031F4
:103AB0004A7A322A05D001224A72FEF7B5FB00206D
:103AC00010BD2222F8E7000010B50B4804680B482F
:103AD000C18F0B48006864225043FCF71BFC604315
:103AE0000849FCF717FC084A11600849C96B081A15
:103AF0000749086010BD000064010020F038002074
:103B0000700100201027000080010020F039002003
:103B10006801002010B50748C18F0748006864227B
:103B20005043FCF7F7FB0549C96B081A04490860C4
:103B300010BD0000F038002070010020F039002096
:103B40006C010020F8B5304DE86A04263043E86285
:103B5000E86A2E4F3040009038692D4C8105802254
:103B6000206D002901DB104300E09043206501F047
:103B7000DBFFE96A04200143E962E96A0140234866
:103B8000009100690F27C0050028224E206D0EDA33
:103B900040218843206501F0CFFF307A002805D00E
:103BA0000020307270690F2800D27761F8BD40069E
:103BB00003D4FF20913002F093FBE86A042108430C
:103BC000E862E86A0840009010480069C00517D410
:103BD000206D01254106002904DB0F4A7761116839
:103BE000294311604021084320650F2003F054FB56
:103BF000307A002804D1357270690F2800D27761BD
:103C000000BF01F099FFF8BD00100240000800500D
:103C1000F0390020100000200024004002F052FB88
:103C200000BFFDE700B58FB038216846FCF766FBA2
:103C3000022000900020039001210A9089050C9039
:103C40000B900D916846FDF7CDFC002801D001F0E6
:103C500059F80FB000BD0000024801688215914379
:103C6000016070470010024010B5FCF797FA044657
:103C700004F01CF8002803D0012003490007486025
:103C80002046FCF78FFA10BD00ED00E038B5044681
:103C9000064805490068FCF733FB604300E0401E1E
:103CA00000900028FBD138BD40420F0034010020B5
:103CB000F7B57D2507462D01401B0E46652806D227
:103CC000701E0C2803D20298401E1F2801D300202A
:103CD000FEBD00240BE0284601F00AFD002802D0BA
:103CE000FF346F3401E0FF346E346D1CADB2BD4261
:103CF000F1D3384601F0FCFC002801D0084901E06E
:103D000007490C31012005E00A18203AD27F141926
:103D1000401CC0B2B042F7D302982018401EFEBD2E
:103D2000C0820008172803D83B2901D83B2A01D9B3
:103D300000207047E1231B0158433C23594340189E
:103D400080187047074B00210278992A01D9632215
:103D500000E09A5C0270491C89B2401C0829F3D328
:103D600070470000D882000810B504480078022887
:103D700001D103F0B5FA002010BD0000850100203C
:103D800000B585B0142206496846FCF7DDF900212C
:103D9000684602F0F2FB0349086005B000BD000070
:103DA0009C8100080000002001460020842900D0EA
:103DB000C81C704710B5026C0C46002A0CD0C168B4
:103DC0008B18C36041688B4201D2194601E001683B
:103DD000C1602046FCF72AFA10BD000010B5154856
:103DE00002F0ACF81448407A022817D01248134960
:103DF000C030006C096840181149FCF78BFA114972
:103E00000968081A022100F0B3FA0121002002F02B
:103E10005DF80B21062002F059F810BD0A48006831
:103E2000022100F0A5FA0121002002F04FF80B2139
:103E30000520F0E70000FFFF30390020800100205E
:103E400010270000680100206C01002030B51B49DC
:103E50000020497A012905D807D118494031097C49
:103E6000622902D81649096802E01449C031896DF7
:103E7000124C403CE36D626D9A4204DAFF22F53247
:103E800062650022E265A36DE26D934202DB656D1F
:103E9000AB4205DD636DD318DD0FEB185B10A36536
:103EA0008A4201DB032030BD8B4201DB022030BDA2
:103EB000626D8A42FBDB012030BD000030390020FA
:103EC0006C01002010B505480068002805D00821C5
:103ED00002F0F4FA052002F003FA10BD0000002001
:103EE00070B50D4D0D4C28782179884200D0207195
:103EF0006878E178884202D0E07000F0C3F9A878D1
:103F0000A178884202D0A070FEF7D0FDE8786178F1
:103F1000884200D0607070BD3E010020100000207B
:103F200038B500251F4C0095A06A401CA06260694E
:103F3000002801D0401E6061E06A002801D0401EC8
:103F4000E062194802F0C0F8FFF7CAFF6069012873
:103F500003D8164805701648057002F0C9F900909C
:103F60006169E06A08430CD112480078022808D041
:103F70001148006D0001800F03D11048007800281F
:103F800002D002F0F5FD04E00D480168490849003F
:103F900001600C48006902F0ABF90099401A0090EA
:103FA00000BF38BD100000203E010020520000205C
:103FB0005300002085010020F0390020540000202B
:103FC000002400400008005010B505480068002893
:103FD00005D0042102F072FA052002F081F910BD2B
:103FE00000000020F8B5002401F0D6FD2948C26A7F
:103FF00004210A43C262C06A274D08407D273F0161
:1040000000902869000605D4142002F069F91434E0
:10401000BC42F6D30F25214E204639460127204CBD
:104020007561884215D3206838432060C820FEF7A8
:10403000BAFC00F019FA002826D100F0EDF90028AA
:1040400022D100F049FB00281ED100F0CBF8002857
:104050001AD11420FEF7A7FC20687561C00704D0B0
:10406000FEF79EFD00280FD103E020683843206052
:104070000AE00C48007C612803D101F043FA0028D3
:1040800002D0756100F0E8FF02F072FD01F08CFDD6
:10409000F8BD000000100240000800501000002091
:1040A0000024004070390020F8B525480078042825
:1040B00003D024490020C860F8BD2348E12182894B
:1040C0000901C3894A434B43C17A012900D1022126
:1040D000002A29D01C484030007C632824D31A4889
:1040E0000127C030446DFF02E507ED0FAE466E427A
:1040F000144D1E40ED68AC46056D3D43002E15D0B5
:10410000104A9C4510D30023D3600565002908D0D0
:104110008E4506D20121CC41C90761181F22D14129
:104120004165042003F0B8F80120F8BD054B944523
:10413000FAD30021D96001210C4305654465F0E7FD
:10414000850100206C0000203039002007480168FC
:10415000C96A002901D00020704705490968012972
:10416000F9D8816AC068081A70470000D40000209E
:104170001804002010B50848006D0001810F0329C4
:1041800006D0800F03D00021052001F09FFE10BD56
:1041900000210320F9E70000F039002010B50448A1
:1041A000006DC00503D50021022001F08FFE10BD77
:1041B000F039002010B50748C18F07480068642215
:1041C0005043FCF7A7F80549496C081804490860F2
:1041D00010BD0000F038002070010020F0390020F0
:1041E0005C01002070B51B4C207C62280FD8612830
:1041F00003D101F087F900280AD001F077F8164DB5
:104200002878052803D115480168002901DD002020
:1042100070BD0068002815DC0E48217C80306129C3
:1042200016D03221C16301F061F8207C612804D0EE
:10423000084820380179491C017103F051F80949F7
:104240000748C8620020287007490870012070BD27
:104250001921E7E770390020520000206801002092
:1042600080510100100000205300002010B50448C8
:10427000C06B002803D00248103001F021F910BDB6
:104280001000002010B500F02BF9FEF709FDFEF735
:1042900053FCFEF70BFC10BD10B501F021FD01F041
:1042A0003FFFFEF757FB01F0A3FA01F043FE01F0D8
:1042B000D7FD134801680124214301607D20C0001F
:1042C00002F00EF801F01EFB02F078F901F0BCFAE2
:1042D000C82002F005F801F0ADFA01F0B5FD0A20A2
:1042E00001F0FEFF00BF02F069FA01F093FF02F057
:1042F000F5FA02F07FFA0348047000F08DFF10BD5C
:10430000002400407801002010B501F02DFC01F0E0
:1043100037FC01F0FFFB01F0F1FB01F0A1FC01F023
:10432000CDFB01F0C9FC01F0D1FC10BD10B508486F
:1043300001F004FE07480068022100F019F800218E
:10434000084601F0C3FD0B21052001F0BFFD10BDA3
:104350000000FFFF5C01002072B6034800680349BB
:10436000086062B6704700007401002070010020F0
:1043700010B586B00C460B46082203A9FEF75AFF7B
:104380002346082203A96846FEF7B4F9684601F0FF
:10439000AFFD6846007CA04202D8201AC0B200E0FF
:1043A000002001F07FFD06B010BD000010B51748D9
:1043B000007C612808D016480078042819D002280B
:1043C00001D1FEF73BF910BD1248032100684008F7
:1043D000FBF796FF002906D0012907D00229F2D168
:1043E000FFF7ACF810BDFEF77FFC10BDFFF732F908
:1043F00010BD06484038407A0228F7D0012802D084
:10440000FFF702F910BDFFF791FF10BD70390020D2
:104410008501002038000020F8B510480025007CF8
:1044200080260F4F0F4C612802D062280CD00EE07E
:1044300001F068F8002802D02078012809D001F0A6
:1044400061F8002805D002E02078012801D0002082
:10445000F8BD26703D700120F8BD000070390020C5
:10446000530000205200002010B51748007C61283E
:1044700007D101F047F8002804D0144C2078002818
:1044800001D0002010BD12480068002817DC00F0A1
:104490002DFF02F05DF900F029FF0E4901200870A0
:1044A00001F080FA00F0B8FE02F01AFF0720207039
:1044B00009490020087009497820486102E00E206F
:1044C00002F0EAFE012010BD7039002052000020E9
:1044D0006C01002078010020530000201000002013
:1044E00010B50F480F4CC389002B15D00146803101
:1044F000086D82050FD42D2252015343A289521C0C
:1045000092B2A2819A4206D3012252021043086558
:10451000122002F0C1FE10BD0020A08110BD0000DD
:1045200070390020100000207CB508222D49684613
:1045300001F059FD2C4C2D4D207D030000F03CFE78
:104540000A4806480C21373E480C2148A07D3C22F1
:10455000696A5043081839E0207E69468870607E99
:104560004870684602F06AFA06461E49A07DC9797D
:10457000C01D401A0721FBF7C3FE1D4841437018B8
:104580006863207E69468870607E4870C87800093C
:1045900000011030C0B2202800D90020A17D0907F9
:1045A000090F01436846C17002F048FA6863684623
:1045B00002F044FAE1210901401807E0647D6846F1
:1045C00002F03CFAE12109014C43201868637CBDEC
:1045D000207E69468870607E4870684602F02EFA38
:1045E0000349E9E73E010020503A00201000002076
:1045F0008051010010B5084801F0A0FC07480849A7
:10460000806B0968081A0221FFF7B2FE0B21052012
:1046100001F05CFC10BD00000000FFFFF03900203D
:104620005C01002010B5084801F088FC0748022111
:10463000C06DFFF79DFE0121002001F047FC0B211A
:10464000052001F043FC10BD0000FFFFF039002001
:1046500010B510490E48097800680B0000F0ACFD59
:104660000707080A0D0F0A12070001F02FFC10BD02
:10467000C007FCD00A210720F7E7C007F7D00A21BE
:104680000620F2E70A21072001F020FCF7E70000EE
:10469000380000208501002070B50B480068FBF74A
:1046A000F1FF054609480068FBF7ECFF044608489F
:1046B000294603F01BFD2146FBF7D2FEFBF780FFE6
:1046C0000449086070BD00006801002064010020FA
:1046D00000401C466C01002010B51148114C007CB4
:1046E000612802D062280ED013E000F00BFF0028F2
:1046F0000FD02078012810D0207800280DD0207805
:1047000005280AD005E02078052806D02078012861
:1047100003D000F097FB012010BD002010BD000069
:104720007039002052000020F8B525490978042985
:104730001FD1244C2349C034266D0127097ABF02BA
:104740003546BD43002905D0142800D91420002186
:104750001D4A07E025650CE08B00D3585B1C08D090
:10476000491C89B28142F7D383001168D258914223
:1047700001D20020F8BD891AE12212015043FBF753
:10478000BFFD104964224039C98F5043FBF7B8FD83
:104790000E494969884210D33E430620266502F03F
:1047A0007BFD0B480178002908D1012101700948DF
:1047B0000902006801F082FE00E025650120F8BDD5
:1047C0008501002030390020F00100206C0000201D
:1047D000100000202800002070470000F8B5184C99
:1047E000606904264007174D174F002811DA6661EB
:1047F000E86A3043E862E86A304000903869400770
:1048000007D400BF11480068002802D0012101F040
:1048100055FE6069000712D508206061E86A3043E0
:10482000E862E86A304000903869000707D400BFAA
:1048300007480068002802D0022101F03FFEF8BDC1
:104840000004014000100240000800502C0000202D
:10485000280000200E4B0F4A197D5B7D506A052908
:1048600007D0062907D007290AD008290BD0002035
:104870000BE03C2101E0E12109014B43181804E061
:10488000E121090100E004494018906370470000ED
:10489000503A0020100000208051010010B5192866
:1048A0000DD30A21022001F011FB0A21012001F0A1
:1048B0000DFB0A21002001F009FB02210AE011286A
:1048C0000AD30A21022001F001FB0A21012001F094
:1048D000FDFA0A21002005E00A21022001F0F6FA83
:1048E0000A21012001F0F2FA10BD000010B50848BD
:1048F00001F024FB07480221806DFFF739FD0121FB
:10490000002001F0E3FA0B21062001F0DFFA10BDD0
:104910000000FFFFF039002010B50C481022047889
:1049200000210B4801F069FB0A4801F007FBA407CE
:10493000A40F621D08A1064801F055FB04490020A0
:1049400009194871024801F0D3FA10BD380000205F
:10495000980100200000FFFF2020656E642D2D2DA2
:104960000000000010B50C481022047800210B480C
:1049700001F043FB0A4801F0E1FAA407A40F621D0D
:1049800008A1064801F02FFB0449002009194871CD
:10499000024801F0ADFA10BD380000209801002057
:1049A0000000FFFF20207265632D2D2D0000000008
:1049B00018B521490120097802293AD11F49CB6A4B
:1049C00004221343CB62CB6A1D4C1340009323692E
:1049D0001B072ED5CB6A1343CB62C96A11400091E5
:1049E0002169C90525D517490B6DDA0621D45A0668
:1049F0001FD4154A1278002A1BD1496DCA0618D453
:104A00004A0616D40A0614D40E4AC03AD27A012AAB
:104A100000D10222CC07E40F944201D3002A08D12E
:104A20000907490F032904D2084A01211170990589
:104A300000D5002018BD00008501002000100240B4
:104A400000080050F03900205400002078010020B8
:104A5000024800218160C160704700006C000020A6
:104A6000F8B5194C6069194DC0050426184F002887
:104A700012DAA0156061E86A3043E862E86A304003
:104A800000903869C00507D400BF124800680028AC
:104A900002D0402101F012FD6069000612D580208D
:104AA0006061E86A3043E862E86A30400090386943
:104AB000000607D400BF07480068002802D0012183
:104AC00001F0FCFCF8BD00000004014000100240B1
:104AD000000800502800002010B5094CA06B2104EC
:104AE0000843A063FCF774FBFCF76AFBE068012154
:104AF000C9038843E06001F037FA01F0F1F810BD16
:104B00000010024030B5114900E011460A688242A7
:104B1000FBD34B685C18844203D140681818486086
:104B2000084643681C18944209D1084C103C24687C
:104B3000A24209D052689A1842600A68126802605C
:104B4000814200D0086030BD0460F9E72C010020EC
:104B500010B50C481022047800210B4801F04DFAE2
:104B60000A4801F0EBF9A407A40F621D08A106484A
:104B700001F039FA0449002009194871024801F08E
:104B8000B7F910BD38000020980100200000FFFF99
:104B900020636F6E6E2D2D2D0000000010B50C48A7
:104BA0001022047800210B4801F027FA0A4801F08E
:104BB000C5F9A407A40F621D08A1064801F013FA65
:104BC0000449002009194871024801F091F910BD0B
:104BD00038000020980100200000FFFF2073656E60
:104BE000642D2D2D000000000648016B0968002986
:104BF00005D0016BC968C9684968816270470021A6
:104C0000C943FAE7D400002010B50C4810220478FC
:104C100000210B4801F0F1F90A4801F08FF9A407CF
:104C2000A40F621D08A1064801F0DDF90449002027
:104C300009194871024801F05BF910BD38000020E5
:104C4000980100200000FFFF206F70656E2D2D2D54
:104C50000000000070B500F05FFD254CA07A002830
:104C60001FD00020A07200F0C5FC00F00FFD214D08
:104C7000214928704A780A708A784A70CA788A70FE
:104C8000C870824201D00F2161611C4C01280FD0F5
:104C9000022813D0032819D0206D800880002065D9
:104CA00023E000F0CBFCA07A401CA072002070BD75
:104CB000206D80088000401C206513E0022002F077
:104CC000EBFA206D80088000801C05E0032002F0D4
:104CD000E3FA206D0321084320652878022801D0DB
:104CE000012802D1064901200870012070BD000092
:104CF000100000205400002055000020F039002052
:104D0000A900002001F0DEFA00BFFDE710B50A4C53
:104D10006288002A0FD00949094801F064F909495D
:104D2000608808800020608007480068002802D062
:104D3000012101F0C3FB10BD4801002048360020CE
:104D400015030020B0000020B400002010B5092198
:104D5000072001F0BBF8164C16492068884203D39F
:104D60000921042001F0B2F813492068884203D3D6
:104D70000921052001F0AAF80F492068C8318842AE
:104D800003D30921062001F0A1F80C4920688842CC
:104D900003D30921032001F099F808492068C8319C
:104DA000884203D30921022001F090F810BD0000D1
:104DB00004000020C4090000540B0000E40C0000B3
:104DC00000BF00BFFCE7000010B50C4810220478BB
:104DD00000210B4801F011F90A4801F0AFF8A407CF
:104DE000A40F621D08A1064801F0FDF80449002047
:104DF00009194871024801F07BF810BD3800002005
:104E0000980100200000FFFF636C6F73652D2D2D4E
:104E10000000000010B50848007800280BD10748B2
:104E2000007D052807D30648C06B002803D004483E
:104E3000103000F045FB10BD54000020503A002017
:104E40001000002020B50E48C0B00078002815D111
:104E50000C4D411E286801F0FDFA002C03D02146BC
:104E6000684601F091FD286801F0CEFA0648C06B53
:104E7000002803D00448103000F022FB40B020BDD1
:104E8000540000200C0000201000002000200449E5
:104E9000421E8300401C80B2CA502028F9D37047BC
:104EA000F001002003488188002901D00021818081
:104EB000704700004801002000BF00BFFCE7000071
:104EC00070B50B4D044628684460E8682968844240
:104ED00004D2686B091D01F0F8FE70BD286B091D36
:104EE00001F0F3FEA86A8442F7D2AC6270BD000004
:104EF000D400002020B50E48C0B00078002815D19D
:104F00000C4D411E286801F0A5FA002C03D0214663
:104F1000684601F039FD286801F076FA0648C06B52
:104F2000002803D00448103000F0CAFA40B020BD79
:104F3000540000200C0000201000002070B5144E1A
:104F4000144D21E002F03AF93068002805D0002421
:104F500003F068F8002C17D101E00124F8E701F014
:104F6000D9FEF068C468201D01F084FEA868401EC8
:104F7000A8606868401E686001F0D8FE206B01F0F0
:104F8000F3FE204601F0F0FE68680028DAD170BD1B
:104F9000E0040020D400002010B50A4A106841083F
:104FA000490011607D20C000401EFDD10120014359
:104FB000116005480068002802D0022101F07EFA45
:104FC00000BF10BD00480040B40000200949C86976
:104FD00080060DD5084A01209060486AC1B2508809
:104FE000FF2803D8054B1954401C508000207047FF
:104FF0000220704700480040480100204836002049
:105000000A49C86980060FD509480122C260496A69
:105010008288C9B2FF2A05D8064A8388D15481887C
:10502000491C8180002070470220704700380140F1
:105030004801002048370020064A1068410849000E
:1050400011607D20C000401EFDD101200143116090
:1050500000BF70470038014070B51C4D28781C48CF
:10506000407A012805D002280BD01A4C0E210020CE
:1050700010E017484030007C622802D9164C0D2100
:10508000F5E7164C0B21F2E7225C2B789A4203D00D
:10509000401C80B28842F7D3491E884202DA401C85
:1050A00086B203E00026C820FDF77DFCA05D2870D5
:1050B0000B490020087028780A2802D028780B288D
:1050C00002D108491E20486170BD00005200002036
:1050D0003039002009820008F1810008FE810008B3
:1050E000530000201000002008B507496A46C97D1A
:1050F00000201170490700D501200349E039097CDF
:10510000622900D8012008BD503A002008B507499F
:105110006A46C97D00201170890700D50120034926
:10512000E039097C622900D8012008BD503A0020EE
:1051300008B507496A46C97D00201170C90700D02B
:1051400001200349E039097C622900D8002008BD0C
:10515000503A002010B586B0044614216846FBF78B
:10516000CDF869466079C87020794870E078887019
:10517000E079087001220F48FCF77EFE002815D167
:1051800014220021684600F038FF6946A0780870B4
:1051900060784870207888700020C8700390049070
:1051A00001220448FCF7D0FE002801D0FEF794FB52
:1051B00006B010BD4435002030B47446641E257816
:1051C000641CAB4200D21D46635D5B00E31830BC3B
:1051D0001847000010B5FFF7BFF8FEF7EBFF0C48CB
:1051E000407A022811D001280AD0FEF76DFCFFF7A3
:1051F00053FAFEF72BFE07490870FDF7E3FF10BDD9
:1052000003484030007C6228F3D8FEF783FCF0E7C7
:105210003039002087010020FEB50020694600904B
:1052200008710872451E264C2946206801F012F9C3
:10523000FFF792F8FEF7BEFF2248407A02283AD0E4
:10524000012833D001AA694602A8FDF7D1FC6846BF
:10525000007A002813D01B480099C030416368468B
:10526000017919480173206801F0CEF800F03EF88A
:105270001649009808602946206801F0EBF8FEF70F
:1052800023FCFFF709FAFEF7E1FD114D2870FDF749
:10529000D1FA0646206801F0B7F8002E05D028782C
:1052A00002280BD0092001F0F7FFFEBD0548403071
:1052B000007C6228E7D8FEF72DFCE4E70820F2E73F
:1052C0000C00002030390020303A0020640100201A
:1052D0008701002010B50446FFF73CFF204601F08F
:1052E000ADFB0149086010BD340000203EB500242C
:1052F00001F05FF90A4D0146286800280ED0621EB1
:1053000001F050F86968002908D0064A684601F0A3
:1053100001F800980199102800D10CB220463EBD3A
:105320008C01002088130000F8B5134D012028706F
:10533000FFF7DCFF00F036FB00F0AEFC0F48032661
:10534000052744780122F6023F071203314638460A
:1053500000F072FD05E07D20C00000F0C1FF641E7A
:10536000E4B2002CF7D100223146384600F064FD4B
:1053700000BF02202870F8BD8501002030390020D0
:10538000F8B5234E3078042830D000F00BFB2148CC
:105390000478032C01D2032402E00A2C00D90A2449
:1053A0000325357000F078FC0122EF020520D202BF
:1053B0003946000700F040FD0A2044431CE000F09D
:1053C00019F900F063F9002811D01349134A022893
:1053D00008D8022048731249087048708870C87055
:1053E000107001E04D731570FFF79EFFF8BD64204B
:1053F00000F076FF641EA4B2002CE0D1052000224C
:105400003946000700F018FD04203070F8BD000098
:105410008501002030390020303A0020540000205F
:105420005500002030B50C46054600F005F828551B
:10543000000A2919487030BDF0B506460D46074FE1
:105440000748002405E0315D3A46FCF7FBFF641C89
:10545000A4B2AC42F7D3C04380B2F0BD211000002B
:105460000F1D000038B50C4601190546022268469A
:10547000891E00F0B8FDA41EA1B22846FFF7DCFF8C
:1054800069460988814201D0002038BD012038BD1D
:10549000094901200968002901D000207047074907
:1054A000CA69002AF9D1044A896828321268491E5B
:1054B0008A42F3D102207047CC040020D40000209F
:1054C00010B5FFF713FF0448C06B002803D00A2271
:1054D000214600F067FF10BD1000002070B54B257D
:1054E0007D26074C6D01F600FFF7B4FB002802D0C3
:1054F0002068A84203D2304600F0F2FEF4E770BD07
:10550000080000200348806E0A2801D90120704756
:1055100000207047F038002050B5234887B000784D
:1055200000283ED0214C08222146684601F052F95D
:10553000684600880C2148431C490831461805A8D4
:1055400000F0C2FD05A801F079FA02901848006841
:105550000390684605820A2102A8FFF763FF0C2228
:1055600002A9304601F0ECF968464288142A01D2BB
:10557000521C42808288142A01D2521C82800088E8
:105580001421401C80B2FAF7BBFE68460180062158
:10559000FFF748FF08226946204601F0D1F9684626
:1055A000808807B050BD000016000020000C0808DD
:1055B0005C0100207FB50E4D08222946684601F0A7
:1055C00009F908216846FFF74DFF04000CD1694630
:1055D00008808880488006216846FFF723FF08225C
:1055E0006946284601F0ACF9204604B070BD0000C1
:1055F000000C080870B5002500F070FA0120C00208
:1056000000F0CEF800F0B8F8002400F0B5F8451925
:10561000641C042CF9D300F0D9F821462846FAF787
:105620006FFE0446044801214460016000BF00F0A1
:1056300045FA204670BD00005C000020F8B5114E10
:10564000B0680127BF053843B060012000F048FE74
:10565000781100F0A5F800F08FF800252C4600F036
:105660008BF84519641C042CF9D300F0AFF82146DF
:105670002846FAF745FE0449C860B168B943B160ED
:10568000F8BD0000002701405C00002070B5124DFD
:105690000024E868002801D10120E86001460F4895
:1056A000FAF72EFE0E49086069684143C80A0D49A1
:1056B000086000BF0C49884201D2022409E0AF21F2
:1056C0000901884201D2012403E00849884200D33D
:1056D0000324204670BD00005C000020387B4C0095
:1056E0000800002004000020C409000094110000FC
:1056F00010B5FF2104469131FAF702FE002907D0C8
:10570000A10707D164212046FAF7FAFD002901D04C
:10571000012010BD002010BD10B51448416B42158A
:10572000114341631348124901600021032292078B
:1057300041604261C164012241648264C26181614D
:1057400002624162C162826241630422C263816378
:10575000FBF734F9002805D100210648FBF778F85B
:10576000002801D0FEF75AFA10BD000000100240D8
:10577000002401409038002010B500240221074881
:10578000FBF70CFA0548FBF7ACF8800503D5034896
:10579000FBF7A9F80446204610BD00009038002011
:1057A00010B508494A6B4B151A434A630649096804
:1057B00088620548FBF752FA002801D0FEF72EFA5E
:1057C00010BD0000001002409038002010B50648BF
:1057D000416B4215114341630448FBF76DFA002801
:1057E00001D0FEF71BFA10BD0010024090380020D7
:1057F00000B587B014216846FAF780FD0B48C26AED
:1058000002210A43C262C06A084005900420009049
:105810000120019000200290032003906946044873
:10582000FBF72EFB00F006F807B000BD00100240A9
:105830000004005010B500220421024800F0FCFAD8
:1058400010BD00000004005010B5042211460248AB
:1058500000F0F2FA10BD00000004005000B58FB057
:1058600038216846FAF74AFD102000900120079081
:10587000032080030990002008900A906846FBF7F7
:10588000B1FE002801D0FFF73DFA0FB000BD00B512
:1058900085B014216846FAF731FD0F2000900020F2
:1058A000019002900390014604906846FBF79EFD2C
:1058B000002801D0FFF726FA05B000BDF8B5FFF7C4
:1058C000E6FF0E4CA06B26043043A0630C4D286805
:1058D0000327FF02B843A11440182860FDF7D0FF4A
:1058E000FEF7BAF9A06B3043A0632868A114B8434F
:1058F00040182860A06BB043A063F8BD00100240C0
:105900000070004070B50C4CA06B25042843A063C8
:10591000FFF7A4FFFFF7BBFFFEF784F9A06B284356
:10592000A063064801680322D20211430160A06B04
:10593000A843A06370BD000000100240007000404A
:10594000F8B504460E46154803212018C90215462D
:10595000884222D2FBF700FA114F3846FAF738FF97
:105960000028FAD115E0042D03D301CE01C42D1F68
:105970000CE0022D05D330882080A41CAD1EB61C7F
:1059800004E030782070641C6D1E761C3846FAF7EF
:105990001FFF002DE7D1FBF7D5F9F8BD0000F8F7A0
:1059A00050C3000010B508220849094800F01BFB4D
:1059B000074808220549083000F015FBFFF766FA92
:1059C000FDF7C6FAFFF744F810BD00003E010020C5
:1059D0009800002070B5104CA068401CA060E168E1
:1059E000491CE160E169491CE161E121090188424A
:1059F00003D30020C04300F039F8E06900253C28BB
:105A000002D3E561FEF750FB2078002803D0257013
:105A10001420FEF789FE70BD6C00002070B5114C9B
:105A2000206A401C2062606A401C6062A06A401CC0
:105A3000A062FFF7CFFF206A00253C2802D3256231
:105A4000FCF7BEFFE121606A0901884202D9656264
:105A5000FDF760FA0449A06A884202D9A562FDF701
:105A6000F9F870BD6C0000208051010070B50B4941
:105A7000002609780A4D042901D0AE6070BD094C9A
:105A80001F218A001319803B491EDB6F0904A350B4
:105A9000090CF6D1206001202870EEE78501002076
:105AA0006C000020F001002010B503220221024802
:105AB00000F05EF910BD00000008005070B5012232
:105AC000054D54032146284600F052F90022214694
:105AD000284600F0B1F970BD0008005070B50122F1
